:020000040800F2
:10000000F80E00209D010008EB030008E70300083C
:10001000E9030008210200087D0C00080000000030
:10002000000000000000000000000000E7090008D8
:100030002302000800000000ED030008B5010008DD
:10004000B7010008B7010008B7010008B7010008B0
:10005000B7010008B7010008B7010008B7010008A0
:10006000B7010008B7010008B7010008B701000890
:10007000B7010008B7010008B7010008B701000880
:10008000B7010008B7010008B70100080000000030
:10009000000000000000000000000000B7010008A0
:1000A000B7010008B7010008B7010008B701000850
:1000B000B7010008B7010008B7010008B701000840
:1000C000B7010008B7010008B7010008B701000830
:1000D000B7010008B7010008B701000800000000E0
:1000E000B7010008B7010008B701000800000000D0
:1000F000000000000000000000000000B701000840
:1001000000000000B7010008B7010008B7010008AF
:1001100000000000000000000000000000000000DF
:10012000B7010008B7010008B7010008B7010008CF
:10013000B7010008000000000000000000000000FF
:10014000000000000000000000000000B7010008EF
:10015000B7010008B7010008B7010008B70100089F
:10016000B7010008B701000800000000000000000F
:10017000000000000000000000000000000000007F
:1001800000000000B7010008DFF80CD000F036F8DE
:1001900000480047BF220008F80E002006488047AC
:1001A00006480047FEE7FEE7FEE7FEE7FEE7FEE75C
:1001B000FEE7FEE7FEE7FEE7210C000889010008E4
:1001C0000146002000E0401C0A5C002AFBD1704779
:1001D00030B50B46014600202022012409E021FA17
:1001E00002F59D4205D303FA02F5491B04FA02F514
:1001F0002844151EA2F10102F1DC30BD064C074D6A
:1002000006E0E06840F0010394E8070098471034E6
:10021000AC42F6D3FFF7BCFFA4320008C43200089A
:10022000FEE770478AB00020089026A101A801F0DF
:1002300087FA4FF4784648B10D284FF01003009626
:1002400033D021A23021002001F064FE23491DA0FB
:1002500000F024FCDFF88480054601244FF47A770F
:1002600008EB84001EA150F8042C204800F008FD83
:1002700008A91E4800F004FCD0B101284FF010037B
:1002800000961BD01AA25021002001F043FE641CEE
:10029000AC4200D90124384600F0FAFF384600F09D
:1002A000F7FF384600F0F4FFDAE718A22021CAE78A
:1002B00000210E4A084600F035FCE8E719A240216B
:1002C000E2E700002F00000053445F434152445FC7
:1002D0004F50454E5F4641494C0000003000002021
:1002E000252D31312E31317300000000C402002071
:1002F00053445F434152445F46494C455F4E4F541F
:100300005F535550504F52544544000053445F438F
:100310004152445F4E4F545F464F524D41545445F5
:100320004400000053445F434152445F4E4F545FCA
:10033000464F554E44000000F0B5002201234FF017
:10034000030C00BF0D6803FA02F42540A5422DD12D
:10035000066854000CFA04F5AE4306600E7907688F
:10036000A6403E4306600E79012E01D0022E12D126
:100370008668AE4386604D798668A54035438560C2
:10038000456803FA02F6B543456045688E799640A4
:10039000B6B235434560C56856000CFA06F7BD4352
:1003A000C560CD79A540C4682543C560521C102A9C
:1003B000C8D3F0BD4B07DB0E9A40C90810B500EB5F
:1003C0008100016A0F249C40A1430162016A11432C
:1003D000016210BD41837047018370470AB10183F8
:1003E000704741837047FEE7FEE7704770470000A3
:1003F000044A0029116801D0014300E081431160E3
:100400007047000030380240044A0029116801D0CA
:10041000014300E08143116070470000443802400E
:1004200030B5224B1968224A11F00C0104D0551046
:10043000042903D0082903D002601DE005601BE0F9
:100440001A49091F0C68C4F3805C0C68BCF1000FEA
:1004500004F03F0402D0B5FBF4F201E0B2FBF4F289
:100460000C680968C4F388146243C1F30141491C54
:100470004900B2FBF1F1016019680E4A01F0F00188
:100480000909545C0168E14041601C6804F4E054CF
:10049000A40A145D21FA04F484601B6803F4604329
:1004A0005B0BD25CD140C16030BD00000838024017
:1004B0000024F4000D00002038B5002422460DA1D0
:1004C0000D4801F07DF848B14FF4784010230090BA
:1004D0000AA21946002001F01DFD38BD064D643DFD
:1004E0000B2001F0F3FE45F82400641C192CF7D30F
:1004F00038BD00002F000000940000204641544603
:10050000535F4E4F545F4D4F554E544544000000CD
:1005100010B510210348FFF75FFFBDE81040FF2032
:1005200000F068B90004024070B5054601220021C0
:10053000092000F0A5F9040004D11021284600F09C
:1005400039F90446FFF7E4FF0CB1012070BD00202B
:1005500070BD70B505464FF6FF7401E0641EA4B28D
:10056000FF2000F047F9A84202D0002CF6D102E0AB
:100570000CB1002070BDFF2070BD1FB56846FFF7AD
:10058000D3FF10B1002004B010BD9DF80010012071
:10059000B0EB911F09D19DF808209DF8091000EBE0
:1005A0000220084400048009EDE79DF805009DF84D
:1005B0000A1000F00F0000EBD1109DF809109DF813
:1005C000072001F0030100EB41019DF808008009BC
:1005D00000EB82009DF8062002F0030200EB82206F
:1005E000401CC91F8840CEE72DE9F843102154482C
:1005F000FFF7F2FE0024FF2000F0FCF8641CA4B218
:100600000A2CF8D314254F4F0026002195220846C6
:1006100000F036F90446012805D02800A5F10105AF
:10062000ADB2F2D17EE03E7087224FF4D571082042
:1006300000F026F94FF6FE7501281FD00122002197
:10064000372000F01DF901220021292000F018F9BF
:10065000012852D80220387001220021372000F0F2
:100660000FF901220021292000F00AF9040052D0DC
:100670002800A5F10105ADB2EED14CE00026E84618
:10068000FF2000F0B7F808F80600761CB6B2042E7A
:10069000F6D39DF80200012845D19DF80300AA2851
:1006A00041D1460701220021372000F0E9F801225C
:1006B0003146292000F0E4F8040004D02800A5F118
:1006C0000105ADB2EED175B3012200213A2000F050
:1006D000D7F840BB00254646FF2000F08BF8705548
:1006E0006D1CADB2042DF7D39DF80000400601D576
:1006F000062000E00420387015E001203870012247
:100700000021104600F0BCF8040004D02800A5F138
:100710000105ADB2F3D12DB101225102102000F03C
:10072000AFF800B13E70FFF7F3FE387810B100204B
:10073000BDE8F8830CB12046FAE7AA20F8E70000EC
:10074000000402400C0000202DE9F0410646184844
:1007500015460078062800D049024FF40077012D95
:100760004FF0010219D0122000F08AF839463046C5
:1007700000F020F86D1E044606F5007615F0FF0522
:1007800001D0002CF2D0012200210C2000F078F8DA
:10079000FFF7BEFE2046BDE8F081112000F070F8A2
:1007A0000400F5D13946304600F004F80446EFE77E
:1007B0000C00002070B505460C46FE20FFF7C9FE70
:1007C00040B1012070BDFF21304601F0F7FE05F871
:1007D000010B00E0064E2000A4F10104A4B2F2D106
:1007E000FF2000F007F8FF2000F004F8002070BDA3
:1007F000003001400146014801F0E0BE00300140F8
:100800007047704710B510210548FFF7E3FD00F071
:1008100068F8002802D0FFF77BFE012010BD000021
:10082000000402402DE9F04105460C4600F059F85D
:1008300010B10120BDE8F0812046FFF7DBFFFD2C61
:1008400019D00E4E00247715295D304601F0B6FE12
:10085000641CA4B2BC42F7D3FF20FFF7CBFFFF20FC
:10086000FFF7C8FFFF20FFF7C5FF00F01F000528B6
:1008700001D00220DEE70020DCE70000003001406C
:1008800070B505460C461646FFF742FEFFF7BAFF65
:1008900008B1FF2070BD45F04000FFF7ABFF200E10
:1008A000FFF7A8FFC4F30740FFF7A4FFC4F3072036
:1008B000FFF7A0FFE0B2FFF79DFF3046FFF79AFF7A
:1008C0000C2D02D1FF20FFF795FF1F24FF20FFF71B
:1008D00091FF0106DED52100A4F10104E4B2F5D1B7
:1008E00070BD70B500246FF07F45FF20FFF782FFD9
:1008F000FF2804D0641CAC42F7D3012070BD002057
:1009000070BD000070B506461D4815460C460078BF
:10091000062800D04C02012D13D0012809D0012255
:1009200000213720FFF7ACFF012229461720FFF7EF
:10093000A7FF012221461920FFF7A2FF04000AD0D9
:100940001AE0012221461820FFF79AFF040013D174
:10095000FE2130460DE0FC213046FFF763FF6D1E9F
:1009600006F5007615F0FF0501D00028F3D0FD2133
:100970000020FFF757FF0446FFF7CAFD204670BD71
:100980000C0000200029018802D041F0400101E064
:1009900021F04001018070470246002012890A427E
:1009A00000D001207047808970478181704730B541
:1009B00002884C8802F441530A88CD8822438C88EF
:1009C0002C4322430C8922434C8922438C892243A5
:1009D000CC8922431A430280828B22F400628283F4
:1009E000098A018230BD7047214900200A6842F41B
:1009F00080320A604FF4A0430A6800F1010012F44B
:100A0000003F01D19842F7D1086880032FD51848DC
:100A10004030026842F0805202601648026842F498
:100A200040420260124808300268026002680260B8
:100A3000026842F480520260031F0F4A1A600A687B
:100A400042F080720A600A689201FCD50B4A40F2BB
:100A500002711160016821F003010160016841F039
:100A6000020101600168C1F381010229FAD17047D6
:100A7000003802400070004019544107003C024019
:100A800010B5014600240122034800F0BBFD00B16F
:100A90000224204610BD0000CC0600202DE9F041C4
:100AA0000E460446014600251A4800F049FE68BB80
:100AB0002046FFF785FB174F0446183F1549154898
:100AC000183900F017FF08BB787AF8B12E28F5D056
:100AD000387AC006F2D4641C3819407A2E28FAD12C
:100AE000192D11D23819817A42290DD1C17A4D2997
:100AF0000AD1007B502807D1064A56F825000F3A44
:100B000005A100F0BDF86D1C0024D7E72846BDE81C
:100B1000F0810000B0060020252D31312E313173D7
:100B2000000000002DE9F0471646ADF50A7D82462B
:100B30000F4601223146684600F064FD304B1E220C
:100B40003049684600F02CFE2E4841898289848B0A
:100B500041EA0245684600F02AFD182C04D0002026
:100B60000DF50A7DBDE8F08701223146684600F0A8
:100B700049FD234B2A462349684600F011FE1F20F9
:100B8000C4EB0411002500EB01101E4E400906EBDA
:100B900040084FEA40091A4B4A461A49684600F095
:100BA000FFFD174B4A464146684600F0F9FD7819AB
:100BB00081B2504601F00AFB0021222001F022FB05
:100BC0005FF0000404EB440080B23118305C8A7896
:100BD0004978D208D202890842EA411141EAD0009C
:100BE00001F040FB641CA4B2F02CEBD36D1CADB241
:100BF000B5F5A07FCFD3684600F0D9FC0120AFE760
:100C000004000020D80200204FF0E02104280869E9
:100C100003D020F004000861704740F00400FAE7B8
:100C2000124810B5016841F4700101601048016874
:100C300041F0010101600E4A002108321160026892
:100C40000C4B1A400260031D0B4A1A60026822F422
:100C50008022026006480C300160FFF7C5FE0349A0
:100C60004FF000608039086010BD000088ED00E0A2
:100C700000380240FFFFF6FE10300024FEE70000BF
:100C80000FB4084B10B504A902AA039800F01CF891
:100C9000044602A9002000F0BCF9204610BC5DF813
:100CA00014FB00001310000802E008C8121F08C15E
:100CB000002AFAD170477047002001E001C1121FDD
:100CC000002AFBD1704700002DE9FF4F8BB005468D
:100CD0008846002667E125287AD100246D1CB64A93
:100CE000A146A24601212B78203B01FA03F01042D5
:100CF00002D004436D1CF6E728782A2810D06FF044
:100D00002F022878A0F13001092915D809EB8901B3
:100D100002EB410144F0020400EB01096D1CF0E715
:100D200058F8049BB9F1000F03DA44F40054C9F1F8
:100D3000000944F002046D1C28782E2817D115F8FC
:100D4000010F44F004042A280ED06FF02F022878F7
:100D5000A0F1300109290AD80AEB8A0102EB41010E
:100D600000EB010A6D1CF2E758F804AB6D1C287803
:100D70006C280FD006DC4C2817D068280DD06A28C4
:100D800014D104E0742810D07A280FD10DE044F477
:100D900000140AE044F4801401E044F4401469783B
:100DA000814202D16D1C04F580146D1C28786928DD
:100DB00066D007DC002876D0632828D0642807D1C5
:100DC0005EE005E06E2808D073282AD075287AD016
:100DD000DDE90D129047761CE4E0C4F302500228CE
:100DE00009D003280DD0D8F8001004280DD00E60CB
:100DF00008F10408D6E0D8F80010F217C1E9006243
:100E0000F6E7D8F800100E80F2E70E70F0E758F819
:100E1000041B8DF8001000208DF80100EB46012026
:100E200003E058F804BB4FF0FF3061074FF00007B4
:100E300001D40AE07F1C57450DDA8742FADB1BF824
:100E400007100029F6D106E07F1C8742FCDB1BF867
:100E500007100029F8D1DDE90D23A9EB0700814631
:100E6000214600F0BEF83044C61904E0DDE90D1259
:100E70001BF8010B90477F1EF8D2214648468CE0B4
:100E800058F8040BC4F302514FF00A0B032900D1A8
:100E900000B2042900D140B2002806DAC0F10000F7
:100EA0004FF02D0104E082E00DE0210504D52B2157
:100EB0008DF82810012103E0E10710D02021F7E789
:100EC00008AF089114E058F8040BC4F302514FF036
:100ED0000A0B032900D180B2042900D1C0B200213D
:100EE000EEE75946FFF774F901F1300107F8011DEB
:100EF0000028F6D1ADEB070000F1200B600702D50A
:100F000024F4803401E04FF0010ADA4502DDAAEB57
:100F10000B0000E00020824600EB0B010898014422
:100F2000A9EB01000990E00306D4DDE90D23214679
:100F3000099800F056F80644002008E00AA8DDE908
:100F40000D1210F809009047761C09F1010008996C
:100F500081468842F2DBE0030CD5DDE90D23214612
:100F6000099800F03EF8064404E0DDE90D12302057
:100F70009047761CBAF10001AAF1010AF5DC05E000
:100F8000DDE90D1217F8010B9047761CBBF100014B
:100F9000ABF1010BF4DC09982146DDE90D2300F0EB
:100FA0000DF806446D1C287800287FF494AE0FB02D
:100FB0003046BDE8F08F0000092801002DE9F0411E
:100FC0000446002517461E46880405D406E0394627
:100FD0002020B04705F10105641EF8D52846BDE87C
:100FE000F0812DE9F0410446002590461E46C803D5
:100FF00001D5302700E02027880405D506E04146CA
:101000003846B04705F10105641EF8D52846BDE80D
:10101000F0810A68531C0B601070704710B50446CD
:1010200000202071401EE062204601F095F908B1D1
:10103000032010BDB4F82E02A0F52A41553901D085
:10104000022010BD94F86600D4F8671040EA012130
:101050000848B0EB012F08D094F88210D4F8832010
:1010600041EA0221B0EB012F01D1002010BD012087
:1010700010BD000000464154426A0068121D490A32
:101080008078B1FBF0F002CA21B1884204D3401A43
:10109000121DF8E700207047116808447047426944
:1010A000891E921E8A4201D800207047826A807889
:1010B00001FB002070472DE9F04105460F0006D0E6
:1010C00000F004FE022809D20120BDE8F081EE689C
:1010D00016B16869B04205D8012603E0696981420A
:1010E000F3D83E4634466869641CA04202D8022404
:1010F000022E0AD32146284600F0E8FD38B1411CF3
:10110000E3D00128E1D0B442EDD10020DDE76FF05B
:1011100070422146284601F0A5F930B957B1224660
:101120003946284601F09EF920B101280DD001244E
:101130002046CAE7EC602869411CF9D0401E2861AE
:10114000687940F001006871F2E74FF0FF34EFE793
:101150002DE9F0478A460C6800E0641C21782F29AD
:10116000FBD05C29F9D085690B222021284601F0AB
:10117000ECF8002291464B464FF00808E05C5B1CFF
:1011800020283CD92F283AD05C2838D02E2801D0EE
:10119000C1450BD3B8F1080F40D12E283ED190069F
:1011A0004FF008094FF00B08020EE7E7802805D33F
:1011B000274E42F00302304410F8800C25A6074663
:1011C00000E0761C96F800C0BCF1000F02D0BC45D0
:1011D000F7D123E0A0F14106192E02D842F0020215
:1011E00008E0A0F16106192E04D8A7F1200042F012
:1011F0000102C0B205F8090009F10109BEE7E118D2
:10120000CAF80010202801D8042000E00020B9F11D
:10121000000F03D02978E52903D004E00620BDE8BB
:10122000F08705212970B8F1080F01D191060A0E47
:1012300002F00301012901D140F01000C2F3810145
:10124000012901D140F00800E8720020E7E7000022
:1012500022320008222A2B2C3A3B3C3D3E3F5B5D6C
:101260007C7F000010B504466FF00400FFF7CCFC53
:1012700005484FF47A72B4FBF0F0C1B20348017034
:1012800011FB02F1418010BD00127A00080000201D
:101290000B49498848434FF0E021486100228A61A8
:1012A000086940F0010008610869C30701D0C00364
:1012B000FAD5086920F0010008618A6170470000D2
:1012C000080000202DE9F0410446C0880F46401C6C
:1012D0000604360C2CD0206950B331075BD1401C7A
:1012E0002061E168206829B18278521E12EA161F37
:1012F00004D050E00089B0421AD94CE000F0E6FC7E
:101300000546012819D9681C30D020684169A942D6
:101310003BD86FB1E168FFF7CEFE05000BD0012D81
:101320000BD0681C22D0206801F0D5F9F0B906E096
:101330000420BDE8F0810720FBE70220F9E72068E0
:101340004FF400723030002100F0FFFF2946206882
:10135000FFF7A5FE216800274FF00108C8620DE0E5
:1013600080F80480206801F0B6F908B10120E0E7B8
:101370002068C16A491C7F1CFFB2C1622068817865
:10138000B942EDD8C16AC91BC162E560294620682F
:10139000FFF785FE2061E68006F00F01302220680D
:1013A00002EB4111084460610020C2E770B50446B9
:1013B0000D4604201EE0206800F0CEFFF8B96269F7
:1013C000117899B1D27AE52902F03F0208D02E298E
:1013D00006D00F2A04D0082A0AD00021A94210D032
:1013E00000212046FFF76EFF20B108E0042006E050
:1013F0000121F3E721690029DDD1002801D0002176
:10140000216170BD70B50446002100F02DF80DE09B
:101410002169206800F0A0FF50B961690978E529C9
:1014200008D039B101212046FFF74CFF0028EFD04A
:10143000042802D0050002D014E0072512E021693B
:10144000206800F089FF05000CD12022002160698E
:1014500000F07BFFD4E905010B2200F06DFF21684D
:1014600001200871284670BD70B50D46C1808168A5
:10147000044601291ED0206842698A421AD921B93E
:101480000278032A04D1416A11B18078060117E07D
:10149000E1600189A9420DD9406A17E0206800F097
:1014A00015FC0146401C07D0022903D3206840697F
:1014B000884203D8022070BD012070BDA81B85B2F0
:1014C000B542EBD2E1602068FFF7E9FD00EB1510B3
:1014D000206105F00F013022206802EB4111084421
:1014E0006061002070BD10B550B9FFF77DF800288D
:1014F00007D0FFF786F9FF20FFF77CF9FFF780F9A7
:10150000012010BD70B5144610B10124204670BDF5
:1015100039B101291BD0022913D0032914D0042486
:10152000F4E70D4D10212846FEF754FFFFF7D9F9D7
:1015300028B1012410212846FEF74EFFE6E70024DB
:10154000F8E74FF4007000E00820108002E0FFF799
:1015500014F820600024D9E7000402408C4610B53E
:1015600011461A0001D070B901E0042010BD604698
:10157000FFF7EAF80028F9D0FFF743F9FF20FFF75B
:1015800039F9FFF73DF9012010BD002070478C4666
:1015900010B511461A0001D038B901E0042010BD81
:1015A0006046FFF7AFF90028F9D0012010BD10B553
:1015B000044600F0C6F9002801D10021216010BDC9
:1015C00037B5144601A800F009FC002801DA0B2009
:1015D0003EBD0B4A002352F8201001B10B70009958
:1015E000002900D00B7042F8201001D0012C01D04E
:1015F00000203EBD002201A9684600F0EFF93EBD83
:10160000240000202DE9F7478BB006000ED04FF0E4
:10161000000A02F01F0727F001020CA96846C6F86D
:1016200000A000F0DBF9050004D087E009200EB02F
:10163000BDE8F08707A8069068460C9900F0EEFA1E
:10164000059C050001D104B9062517F01C0F4BD0ED
:1016500055B1042D03D16846FFF7D4FE0546059C1D
:1016600047F0080745B169E0E07A10F0110F45D165
:10167000780701D5082561E0380745D500F082FBE1
:10168000A073010AE173010C2174000E607484F8E8
:101690000BA084F81CA084F81DA084F81EA084F878
:1016A0001FA02146009800F001FE80460021204640
:1016B00000F0B1FF00990120B8F1000F087121D0AE
:1016C00000984146D0F82C9000F047FF050035D136
:1016D0000098A8F101084946C0F80C80009800F075
:1016E0003BFE05000CD029E045BBE07AC10601D5E0
:1016F000042523E0B90703D5C00701D007251DE065
:10170000380701D547F0200700982146C06AC6E98E
:101710000704B77186F807A05746009800F0C6FD89
:101720003061207FD4F81D1040EA0120C6E9027024
:10173000B761776200983060C088B080284676E74D
:1017400013B584B0040006D0002205A9684600F055
:1017500045F918B11FE0092006B010BD00982060BF
:1017600001A8A0612046059900F058FA78B961698E
:1017700031B1C87AC00611D5009800F097FDA0607D
:1017800000980021C088A0802046FFF76DFE042845
:1017900004D00028E0D000212160DDE70520FAE731
:1017A0002DE9F84F044600201860154699468846F2
:1017B000204600F0F1FF002810D1E07900280DD17B
:1017C000A079C00709D0D4E90210401A012704F11A
:1017D000280A854200D9054687E00720BDE8F88F32
:1017E000A168C80569D122689078401E00EA51209E
:1017F00010F0FF0601D0616912E029B1606A28B1DA
:101800002046FFF739FC05E0216904E010466169D4
:1018100000F05CFA014602291CD3481C48D06161E3
:101820002068FFF73CFCA8B1304400905FEA552BDC
:1018300025D0206806EB0B018278914201D9A2EBFA
:10184000060B40780BF0FF034146009AFFF786FE37
:1018500070BB02E00220E071C0E7A07940060BD522
:10186000A069009A801A584506D208EB40204FF430
:101870000072514600F060FD4FEA4B262BE0A26952
:10188000824218D0A07940060AD52068012351462B
:101890004078FFF77CFE58B9A07920F04000A07195
:1018A0002068012351464078009AFFF757FE10B197
:1018B000E771012092E70098A061A068C0F30800DA
:1018C000C0F50076AE4200D92E46011928313246C5
:1018D000404600F031FDA068B0443044A060D9F823
:1018E0000000AD1B3044C9F80000002D7FF478AF34
:1018F000002073E7FEB50D46044600F04DFF0028BA
:1019000017D1BDB1C4F818D000212046FFF74EFD15
:101910000026042813D000280BD12946204600F0C9
:1019200033FA00212046FFF7CDFC042801D1002026
:101930002661FEBD00212046FFF796FDFEBD266113
:10194000EBE770B5044600F027FF00280ED1A1791F
:101950008A060BD548060ED52068012304F128011C
:101960004078A269FFF713FE08B1012070BDA0798D
:1019700020F04000A071E169206800F0EDFC002833
:10198000F4D1256AE87A40F02000E872E068287710
:10199000E068000A6877E068000CA877E068000E4D
:1019A000E8772846216900F036FE00F0EBF9A875CB
:1019B000010AE975010C2976000E68760020A874EA
:1019C000E874A07920F02000A0712168012008713E
:1019D0002068BDE8704000F026BE00002DE9FF47FA
:1019E00006464FF0000908461746C6F8009000F07A
:1019F000F5F9051E03DA0B2004B0BDE8F087844832
:101A000050F825408CB13460207820B16078FFF721
:101A1000BCFDC1070BD084F80090E8B26070FFF7FE
:101A200062FDC10708D00320E6E70C20E4E70FB110
:101A3000400704D40020DFE71FB1400701D50A208A
:101A4000DAE7002529462046FFF7E8FA012822D1E7
:101A500000206F4604EB001101F5F7710A792AB1F5
:101A60000A7AD1F8091042EA012100E0002147F882
:101A70002010401C0428EDD35FF0000657F82650D4
:101A80002DB129462046FFF7C9FA08B909E002201E
:101A9000761C042EF2D3032801D0E8BB01E001201C
:101AA000AAE7B4F83B00B0F5007F60D1B4F84680F7
:101AB000B8F1000F05D194F85400D4F8551040EA5D
:101AC0000128C4F8188094F840C084F803C0BCF121
:101AD000010F02D0BCF1020F49D194F83D000CFB7C
:101AE00008FCA070C0B1411E084240D1B4F84110BA
:101AF00021810A073BD1B4F843602EB994F85020F5
:101B0000D4F8513042EA0326E38F2BB103EB0C02E9
:101B100002EB1112964200E029E028D3B61AB6FB78
:101B2000F0F020B3012640F6F677B84200D3022643
:101B30004FF6F677B84200D30326801C2A44A262EF
:101B40002B446061C4E90753032E12D079B103EB33
:101B50000C016162022E17D000F0010100EB400081
:101B600001EB500000F2FF10B8EB502F0ED20D2009
:101B700042E70029FBD194F85C10D4F85D20800086
:101B800041EA02216162EDE74000EBE74FF0FF30F0
:101B90002061E06080206071032E30D1B4F86000D5
:101BA00001282CD1691C204600F0D6FB38BB84F8F4
:101BB0000590B4F82E02A0F52A4155391FD194F8AA
:101BC0003000D4F8311040EA01201249884216D181
:101BD00094F81402D4F8151240EA01200E49884204
:101BE0000DD194F81802D4F8191240EA01202061AE
:101BF00094F81C02D4F81D1240EA0120E060044968
:101C00002670091F0888401C0880E08012E7000049
:101C100024000020525261417272416173B5044642
:101C2000019801782F2901D05C2901D1401C019035
:101C30000025A56001980078202805D200212046C3
:101C4000FFF712FC65617CBD01A92046FFF780FA11
:101C50000028F8D100212046FFF706FC10BB2169BF
:101C6000206800F079FBE8B961690A782AB1CA7A7C
:101C7000120711D40A23A26903E0042012E05B1EBC
:101C800007D311F8016B12F8015BB6EB050CF6D027
:101C900002E0BCF1000F05D000212046FFF712FB47
:101CA0000028DCD0A169C97A28B10428CBD1490722
:101CB000C9D405207CBD4907FCD46169C87AC00637
:101CC000F7D5206800F0F2FAA060BDE72DE9F041F9
:101CD00004460D46022902D36069A84202D80120B9
:101CE000BDE8F0812078012804D0022826D00328FE
:101CF00037D12FE0206A05EB550600EB5621204630
:101D000000F02AFB68BBC6F308002044761C90F85C
:101D10003070206A00EB5621204600F01DFB00BB0E
:101D2000C6F308002044E90790F8300047EA002095
:101D300001D00009D4E7C0F30B00D1E7206A00EB23
:101D40001521204600F008FB58B9E8B204EB40002A
:101D5000008EC5E7206A00EBD511204600F0FCFAA2
:101D600010B14FF0FF30BBE740F2FF1000EA8500F2
:101D7000204410F8301FD0F8010041EA002020F084
:101D80007040ADE70020704710B5036901F109020A
:101D90000BB3406900232E2410F803C05B1CBCF178
:101DA000200F0AD0BCF1050F01D14FF0E50C092B33
:101DB00001D102F8014B02F801CB0B2BECD3C37A13
:101DC0000B72037FD0F81D4043EA04230B60038BA2
:101DD0008B80C08AC8800020107010BD10B50246EC
:101DE0004FF0FF3311681846002907D008783038C3
:101DF000092802D24C783A2C01D0002010BD891C51
:101E000011600128FADB184610BD00002DE9F047EB
:101E1000054600214FF49636084600F0D7F9002118
:101E2000222000F0EFF9012211021048FEF7D6FA45
:101E3000DFF83C90002240214846FEF7CFFA0D4FD4
:101E400000244FEA15284146384600F0B7FBE9B2B6
:101E5000384600F0B3FB641CB442F4D34846BDE8F6
:101E6000F04701224021FEF7B9BA0000000002400D
:101E700000040240003001402DE9FF5F8246DDF89A
:101E800038B00C461E468946F0283DD2B4F5A07FF6
:101E90003AD2002736E00C2E02D0102E0AD011E0E4
:101EA00002981A4900EB400001EB80003844A0F58D
:101EB000C07006E01648029900EB01103844A0F506
:101EC000007005784FF00008280604D55A462146D0
:101ED000504600F054F86806641C050EA4B2A4EB4A
:101EE0000900B04205D10AF1010A4C461FFA8AFAEC
:101EF00006E008F1010808F0FF08B8F1080FE3D385
:101F00007F1CFFB2B742C6D3BDE8FF9FBE270008C3
:101F1000322C00082DE9F04305462DED028B81B0EF
:101F20000F469DED0A8A14461E46F02822D2B7F5C8
:101F3000A07F1FD2F020A0EB5608C6F5A07920782C
:101F4000002817D0A84508D2B819002587B2B9458E
:101F500003D200273846FFF759FF8DED008A22781B
:101F6000334639462846FFF787FF05EB560085B212
:101F7000641CE4E701B0BDEC028BBDE8F08310B552
:101F80001446F0280DD2B1F5A07F0AD200F01EF958
:101F90000021222000F036F92046BDE8104000F074
:101FA00061B910BD10B5012240218648FEF716FA2E
:101FB000012280218448FEF711FA0021EA2000F076
:101FC00045F92021EB2000F041F90C21EC2000F034
:101FD0003DF9C421ED2000F039F93821E82000F066
:101FE00035F91021E92000F031F90121F12000F04C
:101FF0002DF91021F22000F029F90121402000F0F4
:1020000025F90021412000F021F90021422000F0B3
:102010001DF91021432000F019F90E21442000F091
:1020200015F92421452000F011F90421462000F083
:102030000DF95021472000F009F90221482000F055
:1020400005F91321492000F001F919214A2000F077
:10205000FDF819214B2000F0F9F816214C2000F072
:10206000F5F81B21502000F0F1F83121512000F04B
:10207000EDF82F21522000F0E9F83F21532000F025
:10208000E5F83F21542000F0E1F83E21552000F012
:10209000DDF82F21562000F0D9F87B21572000F0E1
:1020A000D5F80921582000F0D1F80621592000F078
:1020B000CDF806215A2000F0C9F80C215B2000F071
:1020C000C5F81D215C2000F0C1F8CC215D2000F096
:1020D000BDF81B21084600F0B9F801211A2000F0D4
:1020E000B5F82F21242000F0B1F85721252000F069
:1020F000ADF88821232000F0A9F83421182000F041
:10210000A5F80121192000F0A1F80021012000F01C
:102110009DF888211F2000F099F80520FFF7B8F8F6
:1021200080211F2000F092F80520FFF7B1F89021E0
:102130001F2000F08BF80520FFF7AAF8D0211F2000
:1021400000F084F80520FFF7A3F80521172000F020
:102150007DF80021362000F079F83821282000F0A1
:1021600075F82820FFF794F83F21282000F06EF83A
:102170001821162000F06AF80021022000F066F80D
:102180000021032000F062F80021042000F05EF836
:10219000EF21052000F05AF80021062000F056F843
:1021A0000021072000F052F80121082000F04EF82D
:1021B0003F21092000F04AF8BDE810404FF6FF70BB
:1021C000FFF724BE000402400008024070B5044638
:1021D0000D46F02814D2B5F5A07F11D2210A0220B5
:1021E00000F034F8E1B2032000F030F8290A0620AC
:1021F00000F02CF8E9B2BDE87040072000F026B8E6
:1022000070BD000070B504460D484FF4807309B1ED
:10221000012200E000221946FEF7E0F8094D0022F5
:1022200040212846FEF7DAF82146074800F0C6F9B3
:102230002846BDE8704001224021FEF7CFB80000DB
:1022400000000240000402400030014010B50C467E
:102250000021FFF7D7FF2046BDE810400121FFF71E
:10226000D1BF000070B50446012211020C48FEF7F0
:10227000B5F80C4D002240212846FEF7AFF80A4E73
:10228000210A304600F09AF9E1B2304600F096F9A2
:102290002846BDE8704001224021FEF79FB80000AB
:1022A0000000024000040240003001400246488B1A
:1022B0001278032A02D1898A40EA0140704700F06F
:1022C00033FAFEF7F9F8FDF7ADFF0000F0B50B307B
:1022D000154F20F007010026144A0FE003688B42D7
:1022E0000BD38B4205D95C1A43184568C3E90045F6
:1022F00000E04368136002C004E0021D106800287B
:10230000ECD13046002802D1386808B10020F0BD79
:10231000064A07481060074A121A22F00702C0E96D
:10232000002601203860D7E72C000020280000207C
:10233000FC080020F80A002004E000BF11F8013B6F
:1023400000F8013B521EF9D27047C9B201E000F813
:10235000011B521EFBD2704770B50446C06A0D4681
:10236000A8420ED0204600F0B6F938B960780123B3
:102370002A4604F13001FFF7F1F808B1012070BDE1
:10238000E562002070BD00002DE9FC41012107201D
:10239000FEF72EF802258DF804500026E0208DF877
:1023A000066001242C4F00908DF807408DF80550F1
:1023B00069463846FDF7C0FF052211463846FDF74D
:1023C000F9FF052206213846FDF7F4FF0522072113
:1023D0003846FDF7EFFF8DF8044040208DF8066089
:1023E000DFF8788000908DF807408DF80550694639
:1023F0004046FDF7A1FF8DF8044020028DF80660ED
:1024000000908DF807408DF8055069463846FDF775
:1024100093FF8DF8044080208DF8066000908DF8C1
:1024200007408DF8055069460D48FDF785FF8DF88A
:10243000044030208DF8066000908DF807408DF83C
:10244000055069464046FDF777FF012220214046AE
:10245000FDF7C4FFBDE8FC8100000240000402401B
:10246000000802402DE9F04104460D4616460229B7
:1024700002D36069A84202D80220BDE8F08120782A
:102480004FF00108012808D0022839D0032847D08E
:102490005FF0020084F80480EFE7206A05EB55073F
:1024A00000EB57212046FFF757FF0028F2D1C7F372
:1024B000080001193031EA07F0B203D0024608786B
:1024C00062F31F10087084F80480206A7F1C00EB00
:1024D00057212046FFF740FF0028DBD1C7F3080152
:1024E00021443031EA0702D0C6F3071206E00A7829
:1024F000330A02F0F002C3F303031A430A70C9E778
:10250000206A00EB15212046FFF726FF0028C1D1E5
:10251000E9B204EB4101320A01F8306F4A70B9E7C1
:10252000206A00EBD5112046FFF716FF0028B1D135
:1025300040F2FF1101EA85010A1930324FF0704371
:10254000D2F8011003EA0121314311700B0A5370D4
:102550000B0C9370090ED1709CE72DE9F0410646F3
:102560000C46022916D37069A04213D900251FE03A
:1025700021463046FFF7AAFB07001CD0012F09D0E7
:10258000781C09D0002221463046FFF76BFF05007A
:1025900011D103E002250EE001250CE03069411C59
:1025A00005D0401C3061707940F0010070713C46EC
:1025B0007069A042DCD82846BDE8F08170B50646B7
:1025C0000D46002403E0641CE4B2C82C0FD802219D
:1025D0003046FEF7E1F90028F5D029463046FEF7EF
:1025E000E4F9002405E0641CE4B2C82C01D9002001
:1025F00070BD01213046FEF7CFF90028F3D03046F8
:10260000FEF7D1F9C4B280213046FEF7C5F90028A3
:10261000F9D1204670BD81760A0AC2760A0C02758D
:10262000090E4175704770B5044600F054F8050076
:102630004FD12078032845D16079012842D1420248
:1026400004F1300000210646FFF77FFE552084F894
:102650002E02AA2084F82F02522084F8300084F839
:102660003100612084F83200412184F83310722255
:1026700084F8142284F8152284F8161284F81702BC
:10268000206984F81802010A84F81912010C84F8F0
:102690001A12000E84F81B02E06884F81C02010A7A
:1026A00084F81D12010C84F81E12000E84F81F021B
:1026B000E2690123521CE26260783146FEF767FF4F
:1026C00000206071002260781146FEF71BFF00B108
:1026D0000125284670BD2DE9F0410446007900B37C
:1026E000E66A04F130016078012332460F46FEF7B6
:1026F0004EFF10B10120BDE8F08100202071206A5A
:10270000A169301A88420CD2E57808E0A06901235B
:102710000644607832463946FEF739FF6D1E022DB9
:10272000F4D20020E7E7000010B58AB005A8FDF755
:1027300077FE0698FEF796FDFFF726FE01210803B7
:10274000FDF762FE0020ADF800004FF48271ADF895
:102750000210ADF804000221ADF806100121ADF819
:1027600008104902ADF80A100821ADF80C10ADF8B8
:102770000E000720074CADF8100069462046FEF712
:1027800016F901212046FEF7FDF8FFF70BFC0AB011
:1027900010BD00000030014010B538B1016829B10A
:1027A0000A781AB1CA888088824201D0092010BDF7
:1027B0004878FEF7EAFEC007F9D0032010BD0000FC
:1027C00000000000000000000000000000003F408A
:1027D0000000000000000000300040003000400019
:1027E000000009000BC03D000BC03D00090018C0EF
:1027F00024407FE0224031800000180024C01B00EC
:102800000D803240018003801C4027401C8007401F
:102810000040100060000000000000000000000008
:10282000000000001F802040402000004020204089
:102830001F8000000000090006001F80060009003C
:102840000000040004003F800400040000000010A9
:10285000006000000000000000000400040004000C
:102860000400040000000000004000000000000020
:102870000000002001C006003800400000001F805A
:102880002040204020401F800000000010403FC03A
:1028900000400000000018C02140224024401840A1
:1028A000000010802040244024401B8000000200D3
:1028B0000D0011003FC0014000003C802440244036
:1028C0002440238000001F802440244034400380A3
:1028D00000003000200027C03800200000001B80CE
:1028E0002440244024401B8000001C0022C02240C1
:1028F00022401F800000000000000840000000008F
:102900000000000000000460000000000000000063
:1029100004000A001100208040400900090009005D
:1029200009000900000000004040208011000A005A
:1029300004001800200023402400180000001F801D
:102940002040274029401F400000004007C03900B8
:102950000F0001C0004020403FC0244024401B80A5
:1029600000001F8020402040204030800000204098
:102970003FC0204020401F80000020403FC0244036
:102980002E4030C0000020403FC024402E003000C8
:1029900000000F00108020402240338002002040C1
:1029A0003FC0040004003FC02040204020403FC002
:1029B0002040204000000060202020203FC0200058
:1029C000200020403FC024400B0030C02040204069
:1029D0003FC020400040004000C03FC03C0003C05A
:1029E0003C003FC0000020403FC00C4023003FC0DF
:1029F00020001F802040204020401F8000002040F9
:102A00003FC024402400180000001F8021402140C6
:102A100020E01FA0000020403FC02440260019C035
:102A2000004018C024402440224031800000300083
:102A300020403FC020403000000020003F80004088
:102A400000403F80200020003E0001C00700380009
:102A50002000380007C03C0007C0380000002040BC
:102A600039C0060039C0204000002000384007C0AF
:102A7000384020000000304021C02640384020C0AF
:102A80000000000000007FE0402040200000000027
:102A900070000C0003800040000000004020402037
:102AA0007FE0000000000000200040002000000047
:102AB00000000010001000100010001000100000B6
:102AC00000004000000000000000000002800540FF
:102AD000054003C0004020003FC004400440038084
:102AE0000000000003800440044006400000000095
:102AF0000380044024403FC00040000003800540A4
:102B0000054003400000000004401FC02440244052
:102B10002000000002E0055005500650042020402F
:102B20003FC00440040003C000400000044027C030
:102B300000400000000000100010041027E000001A
:102B4000000020403FC00140070004C00440204076
:102B500020403FC000400040000007C0040007C004
:102B6000040003C00000044007C00440040003C088
:102B70000040000003800440044003800000041073
:102B800007F004500440038000000000038004406C
:102B9000045007F00010044007C002400400040085
:102BA0000000000006400540054004C00000000091
:102BB00004001F8004400040000004000780004023
:102BC000044007C000400400070004C00180060064
:102BD0000400060001C0070001C006000000044018
:102BE00006C0010006C0044000000410071004E005
:102BF0000180060004000000044005C006400440B7
:102C000000000000000004007BE040200000000005
:102C100000000000FFF000000000000040207BE00A
:102C20000400000000004000800040002000200060
:102C30004000000000000000000000000000000054
:102C400000000000000000001FCC000C000000008D
:102C50000000000008003000600008003000600044
:102C60000000022003FC1E20022003FC1E20022084
:102C7000000000000E1811043FFF10840C780000C3
:102C800000000F0010840F3800C007781884007807
:102C9000000000780F8410C411240E9800E4008412
:102CA000000808006800700000000000000000003C
:102CB000000000000000000007E018182004400297
:102CC0000000000040022004181807E00000000087
:102CD00000000240024001800FF0018002400240EB
:102CE00000000080008000800FF8008000800080DD
:102CF00000000001000D000E0000000000000000B8
:102D000000000000008000800080008000800080C3
:102D100000800000000C000C00000000000000001B
:102D20000000000000060018006001800600180086
:102D30002000000007F0080810041004080807F03D
:102D400000000000080408041FFC00040004000048
:102D5000000000000E0C10141024104411840E0CFE
:102D6000000000000C1810041104110412880C70EB
:102D70000000000000E00320042408241FFC0024BD
:102D8000000000001F9810841104110410881070B6
:102D90000000000007F00888110411041888007072
:102DA000000000001C00100010FC13001C001000AC
:102DB000000000000E3811441084108411440E38B5
:102DC000000000000700088C10441044088807F039
:102DD0000000000000000000030C030C00000000D5
:102DE00000000000000000010106000000000000DB
:102DF00000000000008001400220041008081004B8
:102E000000000220022002200220022002200220D4
:102E10000000000010040808041002200140008097
:102E2000000000000E001200100C106C10800F004B
:102E3000000003E00C1813E4142417C4082807D07A
:102E400000000004003C03C41C40074000E4001CD8
:102E5000000410041FFC1104110411040E880070FA
:102E6000000003E00C1810041004100410081C10DB
:102E7000000010041FFC100410041004080807F0E0
:102E8000000010041FFC1104110417C410040818DA
:102E9000000010041FFC1104110017C010000800EE
:102EA000000003E00C181004100410441C780040CB
:102EB000000010041FFC10840080008010841FFCA0
:102EC00010040000100410041FFC10041004000083
:102ED000000000030001100110011FFE100010008F
:102EE000000010041FFC110403801464181C10045B
:102EF000000010041FFC1004000400040004000C77
:102F0000000010041FFC1F0000FC1F001FFC100429
:102F1000000010041FFC0C04030000E010181FFC4C
:102F2000100007F00808100410041004080807F047
:102F3000000010041FFC10841080108010800F000F
:102F4000000007F0081810241024101C080A07F2CB
:102F5000000010041FFC1104110011C011300E0CF0
:102F6000000400000E1C11041084108410441C384E
:102F700000001800100010041FFC100410001800BE
:102F8000000010001FF810040004000410041FF8D3
:102F9000100010001E0011E0001C007013801C00C7
:102FA00010001FC0103C00E01F0000E0103C1FC0DC
:102FB00000001004180C163401C001C01634180C9F
:102FC000100410001C00130400FC13041C0010006B
:102FD00000000804101C1064108413041C04101852
:102FE00000000000000000007FFE4002400240029E
:102FF0000000000030000C0003800060001C000393
:10300000000000004002400240027FFE000000007D
:1030100000000000000020004000400040002000B0
:103020000000000100010001000100010001000199
:1030300000010000400040002000000000000000EF
:10304000000000000098012401440144014400FCF8
:10305000000410001FFC00880104010400880070B7
:1030600000000000007000880104010401040088D1
:1030700000000000007000880104010411081FFC1A
:103080000004000000F8014401440144014400C868
:1030900000000000010401040FFC110411041100E0
:1030A0001800000000D601290129012901C90106E3
:1030B000000010041FFC008401000100010400FC5A
:1030C000000400000104190419FC000400040000BD
:1030D00000000000000300010101190119FE0000B9
:1030E000000010041FFC0024004001B4010C010486
:1030F00000000000100410041FFC00040004000085
:103100000000010401FC0104010001FC01040100B4
:1031100000FC010401FC008401000100010400FC2A
:103120000004000000F8010401040104010400F897
:103130000000010101FF0085010401040088007006
:10314000000000000070008801040104010501FF77
:1031500000010104010401FC00840104010001805C
:103160000000000000CC0124012401240124019866
:10317000000000000100010007F801040104000044
:103180000000010001F8000400040004010801FC33
:103190000004010001800170000C0010016001803A
:1031A000010001F0010C003001C00030010C01F001
:1031B000010000000104018C00740170018C010405
:1031C0000000010101810171000E00180160018001
:1031D000010000000184010C013401440184010C50
:1031E0000000000000000000000001003EFC400262
:1031F00040020000000000000000FFFF000000008F
:1032000000000000400240023EFC010000000000FF
:1032100000000000600080008000400040002000AE
:103220002000808182838485868788898A8B8C8D23
:103230008E8F90919293949596979899AD9B8C9D33
:10324000AE9FA021A2A3A4A5A6A7A8A9AAABACAD96
:10325000AEAFB0B1B2B3B4B5B6B7B8B9BABBBCBD16
:10326000BEBFC0C1C2C3C4C5C6C7C8C9CACBCCCD06
:10327000CECFD0D1D2D3D4D5D6D7D8D9DADBDCDDF6
:10328000DEDFC0C1C2C3C4C5C6C7C8C9CACBCCCDA6
:10329000CECFD0D1D2D3D4D5D6F7D8D9DADBDCDDB6
:1032A000DE9F0000C4320008000000203000000053
:1032B000A80C0008F432000830000020C80E0000FE
:1032C000B80C000800000000000000000000000032
:1032D00000000000000102030401020304060708C5
:1032E00009000000000000000000000000000000D5
:0432F00000000000DA
:040000050800018965
:00000001FF
