:020000040800F2
:10000000F80E0020C90000084F0300084D03000847
:1000100000000000000000000000000000000000E0
:100020000000000000000000000000003D0A000881
:10003000000000000000000051030008F700000865
:10004000F900000800000000F9000008F9000008AD
:10005000F9000008F9000008F9000008F90000089C
:1000600000000000F9000008F9000008F90000088D
:10007000F9000008F9000008F9000008000000007D
:10008000F90000080000000000000000F90000086E
:10009000F9000008F9000008F9000008F90000085C
:1000A000F9000008F9000008F9000008F90000084C
:1000B000F90000080348854600F05AF80048004758
:1000C000F7240008F80E00200C4880F308880C483C
:1000D0000168090E0B4A914205D10B480B4901609A
:1000E0000B480C4901600C4880470C480047FEE76C
:1000F000FEE7FEE7FEE7FEE7FEE70000F80E002061
:10010000040000001F000000181002400100000061
:1001100000000140000000006D0C0008B500000860
:1001200030B50B46014600202022012409E00D468F
:10013000D5409D4205D31D469540491B2546954017
:1001400040191546521E002DF1DC30BD421C0178CD
:10015000401C0029FBD1801A7047001D0321401E5E
:10016000037812021A43491EF9D510467047000061
:10017000064C0125064E05E02046E36807C82B43E0
:1001800098471034B442F7D3FFF798FF543400086F
:10019000743400088AB00020089026A101A801F05C
:1001A000AAFB1F25ED02002808D00D28009533D0AA
:1001B000102321A23021002001F0CEFF23491DA0F1
:1001C00000F098FC01247D270646FF001F48A1008F
:1001D00008184038C26B1EA1204800F0CFFD08A9C6
:1001E0001E4800F079FC00281AD0012800951DD087
:1001F00010231BA25021002001F0AEFF641CB4426A
:1002000000D90124384601F0CFF8384601F0CCF887
:10021000384601F0C9F8D9E7102318A22021CAE70F
:1002200000210E4A084600F0A9FCE7E7102319A2B6
:100230004021E0E72F00000053445F434152445FF8
:100240004F50454E5F4641494C00000030000020B1
:10025000252D31312E31317300000000C402002001
:1002600053445F434152445F46494C455F4E4F54AF
:100270005F535550504F52544544000053445F4320
:100280004152445F4E4F545F464F524D4154544586
:100290004400000053445F434152445F4E4F545F5B
:1002A000464F554E44000000F0B50022012423467D
:1002B0000D6893401D409D422AD10D79012D01D03A
:1002C000022D12D1876855000326AE40B7438760E0
:1002D0004E79AE4085682E43866085889D43858033
:1002E00085888B7993401D438580066855000323DC
:1002F000AB409E4306600E790768AE403E43066001
:10030000C6689E43C660CB79AB40C5682B43C360CB
:10031000521C102ACBD3F0BD4B07DB0E9A40C90804
:1003200010B589000818016A0F249C40A14301629E
:10033000016A1143016210BD0185704781617047F8
:10034000002A01D08161704701857047FEE7704740
:1003500070470000044A0029516901D0014300E0C0
:10036000814351617047000000100240044A002997
:10037000D16901D0014300E08143D16170470000A1
:1003800000100240044A0029916901D0014300E0B5
:10039000814391617047000000100240F8B5464D5E
:1003A0000446696800200C22444E114005D00429FF
:1003B00003D0082903D00C2918D0266018E06968FA
:1003C000686803228902D2030F0F1040BF1C002867
:1003D00009D0E86A0107090F491C3046FFF7A0FE63
:1003E0007843206004E036487843FAE735492160D5
:1003F0006968354B0906090F5A5C21680F46D740DA
:1004000067606A685205520F9A5CD740A7602A6BF2
:10041000D20501D42D4A05E06A68520401D47A0855
:1004200000E0BA08E2602A6B5306294A03D4284B3D
:100430001233236100E022612B6BDB0601D466617D
:1004400000E061612B6B9B070ED02B6B9B079B0F12
:10045000012B0BD02B6B9B079B0F022B08D02B6B18
:10046000DB439B0706D006E0A76104E0A16102E040
:10047000A26100E0A6612B6B9B039B0F0FD02B6B3F
:100480009B039B0F012B0CD0296B8903890F022939
:1004900009D0296B8903890F032906D006E0E7619B
:1004A00004E0E16102E0E26100E0E661296B090637
:1004B00000D404482062F8BD0010024000127A0007
:1004C00000093D00006CDC020D000020809FD5007B
:1004D0000080000038B5002422460DA10D4801F02F
:1004E0004BF9002809D01F20C002102300900AA257
:1004F0001946002001F030FE38BD064D643D0B204A
:1005000002F000F8A100641C6850192CF7D338BD24
:100510002F0000009400002046415446535F4E4F88
:10052000545F4D4F554E54454400000010B5102106
:100530000348FFF703FFFF2000F074F910BD00002F
:100540000004004870B5054601220021092000F092
:10055000AFF9040004D11021284600F041F9044607
:10056000FFF7E4FF002C01D0012070BD002070BD1A
:1005700070B50546084C01E0641EA4B2FF2000F0EF
:1005800051F9A84202D0002CF6D103E0002C01D092
:10059000002070BDFF2070BDFFFF00001FB5684642
:1005A000FFF7D0FF002802D0002004B010BD68463D
:1005B00000788009012868461BD040790107684609
:1005C000807A090FC00909186846407A8007400FF1
:1005D00009186846007A82096846C07980001218B6
:1005E000684680798007000D1018401CC91F88409C
:1005F000DBE7417A007A0002401C081800048009F9
:10060000D3E70000F8B510215748FFF797FE002404
:10061000FF2000F007F9641CA4B20A2CF8D31426BA
:10062000524D002700219522084600F041F904466A
:10063000012805D03046761EB6B20028F2D187E0F8
:10064000FF212F708722AB31082000F031F90128FB
:1006500020D001220021372000F02AF901220021B8
:10066000292000F025F901285AD80220404E287090
:1006700001220021372000F01BF90122002129204E
:1006800000F016F904005AD03046761EB6B20028A3
:10069000EED154E000266F46FF2000F0C3F8B855B5
:1006A000761CB6B2042EF7D368468078012803D1B1
:1006B0006846C078AA2806D0FFF738FF28780028B7
:1006C0004ED00020F8BD2A4E01220021372000F034
:1006D000EFF801229107292000F0EAF8040004D085
:1006E0003046761EB6B20028EED1002E31D001225F
:1006F00000213A2000F0DCF800282AD10026FF2053
:1007000000F090F8B855761CB6B2042EF7D36846C0
:100710000078400601D5062000E00420287018E08B
:100720000120134E287001220021104600F0C0F86D
:10073000040004D03046761EB6B20028F3D1002E55
:1007400006D001225102102000F0B2F8002800D09B
:100750002F70FFF7EBFE28780028B2D1002C01D0D3
:100760002046F8BDAA20F8BD000400480C00002077
:10077000FEFF0000F8B50646184815460078062822
:1007800000D0490201277F02012D1AD00122122038
:1007900000F08EF83946304600F022F8FF36FF367A
:1007A00002366D1E2D0604462D0E01D0002CF1D010
:1007B000012200210C2000F07BF8FFF7B7FE204655
:1007C000F8BD0122112000F073F80400F5D139467C
:1007D000304600F005F80446EFE700000C0000206A
:1007E00070B504460D46FE20FFF7C2FE002808D073
:1007F000012070BDFF21304601F0EAFF2070641C2B
:1008000000E0074E28466D1EADB20028F2D1FF2051
:1008100000F008F8FF2000F005F8002070BD00008F
:100820000030014010B50146014801F0D1FF10BD74
:10083000003001407047704710B510210548FFF7A0
:100840007BFD00F069F8002802D0FFF76FFE012061
:1008500010BD000000040048F8B50C46054600F045
:100860005BF8002801D00120F8BD2046FFF7DAFF31
:10087000FD2C19D00D4F00247E15295D384601F05E
:10088000A7FF641CA4B2B442F7D3FF20FFF7CAFF4E
:10089000FF20FFF7C7FFFF20FFF7C4FFC006C00E11
:1008A000052801D00220F8BD0020F8BD003001402D
:1008B00070B516460C460546FFF738FEFFF7BCFF3D
:1008C000002801D0FF2070BD284640210843FFF7D3
:1008D000A9FF200EFFF7A6FF2002000EFFF7A2FFE0
:1008E0002004000EFFF79EFFE0B2FFF79BFF3046AB
:1008F000FFF798FF0C2D02D1FF20FFF793FF1F2475
:10090000FF20FFF78FFF0106DDD52146641EE4B20C
:100910000029F5D170BD000070B5074D0024FF20FF
:10092000FFF780FFFF2804D0641CAC42F7D30120FE
:1009300070BD002070BD0000FFFFFF0070B50646CF
:100940001E48154600780C46062800D04C02012DA2
:1009500013D0012809D0012200213720FFF7A8FF7A
:10096000012229461720FFF7A3FF01222146192063
:10097000FFF79EFF04000AD01BE001222146182049
:10098000FFF796FF040014D1FE2130460EE0FC2153
:100990003046FFF761FFFF36FF3602366D1E2D062B
:1009A0002D0E01D00028F2D0FD210020FFF754FFCA
:1009B0000446FFF7BBFD204670BD00000C00002080
:1009C00040220029018801D0114300E091430180B9
:1009D00070470246128900200A4200D00120704769
:1009E00030B50388C122920113400A88CC890D8951
:1009F0002243CC882C4322434C8922438C892243B6
:100A00001A4302808288094B1A408B8813438380E3
:100A10000A8A02820288042349889A43114301808A
:100A2000818B034A1140818330BD0000FFF000003C
:100A3000FFF70000007B70470173704770470000AC
:100A40001CB50021224801910091026801231B047A
:100A50001A4302605B000522120304681C400094E4
:100A6000019C641C0194009C002C02D1019C9442C6
:100A7000F3D10268920328D501210091154A112172
:100A80001160416841604168416041687F22D20342
:100A90009143416041681122120411434160016891
:100AA000012212061143016001688901FCD54168E9
:100AB0008908890041604168022211434160416810
:100AC0000907890F0229FAD11CBD00911CBD000045
:100AD000001002400020024010B50146002401220F
:100AE000034800F06DFE002800D00224204610BD0F
:100AF000CC060020F8B50F460446014600261B48E8
:100B000000F0F9FE00282FD12046FFF71FFB174DFC
:100B10000446183D15491548183900F0D2FF002841
:100B200022D1687A00281FD02E28F3D0287AC00658
:100B3000F0D4641C2819407A2E28FAD1192E11D22B
:100B40002819817A42290DD1C17A4D290AD1007B19
:100B5000502807D1054AB00038580F3A04A100F0D8
:100B60000DF9761C0024D5E73046F8BDB00600200C
:100B7000252D31312E31317300000000F7B5FFB063
:100B800016468DB00122314601A800F019FE2F4B08
:100B90001E222F4901A800F0E1FE2D4882894189DB
:100BA0001504848B0D4301A800F0DDFD182C03D043
:100BB00000207FB010B0F0BD0122314601A800F046
:100BC000FFFD224B2A46224901A800F0C7FEF02073
:100BD00044431F34600940001D4E002587190090D2
:100BE0001A4B1B4901A8009A00F0B8FE3946174B72
:100BF00001A8009A00F0B2FE8D98401981B28C983D
:100C000001F002FC0021222001F018FC0024600009
:100C1000201881B2721890785278C0089208715CDE
:100C2000C00252011043C908084301F033FC641CA0
:100C3000A4B2F02CEBD36D1CFF20ADB24130854245
:100C4000CED301A800F08FFD0120B2E70400002000
:100C5000D8020020042204490428086902D09043E5
:100C6000086170471043FBE700E000E010B514484E
:100C700001680122114301604168124A114041603C
:100C80000168114A114001600168012292049143F8
:100C9000016041683F22120491434160C16A090921
:100CA0000901C162016BFF22543291430163416B20
:100CB00049084900416300218160FFF7C1FE10BD72
:100CC000001002400CB8FF08FFFFF6FE0029016883
:100CD00002D00122114301E0490849000160704738
:100CE00030B50446006889B00D46400840002060D9
:100CF0006068032109038843A96801436160206893
:100D00001A49EA680840696811432A690243114395
:100D10002160A06803210902884369690143A16039
:100D20006846FFF73BFB1248844201D1069805E074
:100D30001048844201D1079800E002982168090414
:100D4000296800D54000FFF7EBF92A6852088A426B
:100D500000D8401C2168090404D50107064A490F40
:100D600010400843A08109B030BD0000F3E9FFFF47
:100D70000038014000440040F0FF00000FB410B5FF
:100D800004A9074B02AA039800F01CF8044602A924
:100D9000002000F0BFF9204610BC08BC04B0184782
:100DA0001511000802E008C8121F08C1002AFAD174
:100DB00070477047002001E001C1121F002AFBD1DB
:100DC00070470000FFB58FB005460026E7E02528F4
:100DD0007ED100246D1CBB4A0294012100942B7823
:100DE0000846203B98400346134202D004436D1C42
:100DF000F5E728782A280ED00222287801463039D3
:100E0000092916D802990A23594330394018144346
:100E10006D1C0290F1E7109802C802911090002911
:100E200004DA0120400304434842029002200443B4
:100E30006D1C28782E2817D1042004436D1C2878B7
:100E40002A280CD110986D1C02C8009110900BE05C
:100E500000990A225143303940186D1C00902878BF
:100E6000014630390929F3D928786C2810D006DCDE
:100E70004C281AD068280ED06A2817D104E07428AC
:100E800013D07A2812D110E00120400504430CE071
:100E90000121090501E0032109050C43697881421C
:100EA00003D101206D1C000524186D1C28786928C9
:100EB0007ED007DC002878D0632829D0642807D1A9
:100EC00076E005E06E2808D073282DD075286BD009
:100ED000129A11999047761C60E06002400F022838
:100EE00009D003280DD00428109801680DD0001DEA
:100EF0000E60109052E01098F21702C80E604A601F
:100F0000F7E7109802C80E80F3E7001D0E70F0E7B7
:100F100010986A460178001D1173109000205073DC
:100F200003A80190012005E0109802C801911090DB
:100F30000020C04361070CD5002700E07F1C00990A
:100F40008F420FDA8742F9DB0199C95D0029F5D19B
:100F500008E0002700E07F1C8742FCDB0199C95DA7
:100F60000029F8D102982146C01B0290129B119AC9
:100F700000F0BAF88019C61907E0019801990078C5
:100F8000491C0191129A119990477F1EF5D2214672
:100F9000129B119A029800F097F886196D1C287818
:100FA000002802D013E700E022E0304613B0F0BD85
:100FB0000A200190109901C910916102490F03297B
:100FC00000D100B2042900D140B2002802DA404228
:100FD0002D2102E0210504D52B216A461173012140
:100FE00003E0E10711D02021F7E70CAF0C9114E0EA
:100FF0000A200190109901C910916102490F03293B
:1010000000D180B2042900D1C0B20021EDE70199DE
:10101000FFF786F830317F1E39700028F7D104A819
:10102000C01B20300190600704D5012000048443D8
:10103000009801E0012000900199884201DD401AEA
:1010400000E00020411800900C9809180298401AFE
:101050000290E00306D42146129B119A029800F0F8
:1010600043F88619002007E003A9085C129A119939
:1010700090470D98761C401C0C990D908842F3DB2C
:10108000E0030CD52146129B119A029800F02CF82F
:10109000861904E0129A302011999047761C009925
:1010A000481E00900029F5DC05E03878129A7F1C74
:1010B00011999047761C0199481E01900029F4DC93
:1010C00065E7000009280100F8B5044600251E4622
:1010D0001746880404D405E039462020B0476D1C2B
:1010E000641EF9D52846F8BDFFB50446002581B039
:1010F0001E46C80301D5302700E02027880404D508
:1011000005E038460399B0476D1C641EF9D52846A2
:1011100005B0F0BD0A68531C0B60107070470000EA
:1011200070B5044600202071401EE062204601F0A8
:101130002EFA002801D0032070BD11204001201894
:10114000C0891049884201D0022070BD2046673016
:10115000FFF703F86621095D000208430A4D00020B
:10116000A8420AD020468330FEF7F7FF8034A178EA
:10117000000208430002A84201D1002070BD0120F6
:1011800070BD000055AA00000046415410B5446AE5
:101190000068241D8278480A1146FEF7C1FF02CC80
:1011A000002904D0884204D3401A241DF7E7002008
:1011B00010BD2168081810BD4269891E921E8A421E
:1011C00001D8002070478278806A4A43101870471F
:1011D000F8B50F00054605D000F096FE022809D2AA
:1011E0000120F8BDEE68002E02D06869B04205D833
:1011F000012603E069698142F3D83E4634466869B6
:10120000641CA04202D80224022E0BD32146284699
:1012100000F07AFE002807D0411CE2D00128E0D07F
:10122000B442ECD10020F8BD114A2146284601F015
:1012300023FA002808D1002F0BD022463946284631
:1012400001F01AFA002804D001280DD0012420460C
:10125000F8BDEC602869411CF9D0401E286168790E
:10126000012108436871F2E70024E443EFE700003E
:10127000FFFFFF0FF3B581B002990C6800E0641C1A
:1012800021782F29FBD05C29F9D085690B222021F8
:10129000284601F075F90020014608228E46944642
:1012A000225C401C202A38D92F2A36D05C2A34D020
:1012B0002E2A0CD0E6453FD2802A05D303231943BA
:1012C000294B9A18803A127828A3164609E06246FC
:1012D000082A31D196460B2289069446090EDFE78B
:1012E0005B1C1F78002F02D0B742F9D124E01346CF
:1012F000413B192B02D80223194308E01346613BF6
:10130000192B04D8012319433246203AD2B273462E
:10131000EA547246521C9646C2E723180298202AC5
:10132000036001D8042000E000207246002A03D0A8
:101330002A78E52A02D003E00620FEBD05222A70A5
:101340006246082A01D18906090E8A07920F012AEE
:1013500001D1102210430907890F012901D1082169
:101360000843E8720020FEBDD2330008222A2B2C4D
:101370003A3B3C3D3E3F5B5D7C7F000010B5044640
:101380000420C043FFF766FC05492046FEF7C8FE6F
:101390000449C0B27D220870D2005043488010BD7D
:1013A00000127A00080000200A49498848430A4987
:1013B000486100228A6108690123184308610869AD
:1013C000C30701D0C003FAD508694008400008618E
:1013D0008A6170470800002000E000E070B5E12459
:1013E000012186B064024804FEF7C0FF0094002487
:1013F000184E0825019402940394694630460495DA
:101400000594FFF76DFC01213046FFF75FFC01F00A
:10141000D7F801210803FEF7B5FF6846FF210480D5
:10142000053141800721090281800221C18001210B
:101430000181490241818581C48107210182064CD5
:1014400069462046FFF7CCFA01212046FFF7B8FA9B
:1014500006B070BD0044004000300140F8B50446BD
:10146000C0880F46401C0604360C31D02069002885
:101470002ED031075DD1401C2061E168002906D0E3
:101480002068320983785B1E1A4205D051E020683B
:101490000089B0421CD94CE000F036FD0546012819
:1014A0001AD9681C30D020684169A9423BD8002F66
:1014B0000ED0E168FFF78CFE05000BD0012D0BD09C
:1014C000681C21D0206801F006FA00281CD105E034
:1014D0000420F8BD0720F8BD0220F8BD20680122D5
:1014E00030305202002101F04BF829462068FFF706
:1014F00063FE21680027C8620EE0012101712068A7
:1015000001F0E9F9002801D00120F8BD2068C16A86
:10151000491C7F1CFFB2C16220688178B942ECD8B7
:10152000C16AC91BC162E56029462068FFF744FE15
:101530002061E6803007C00D2168303008186061F6
:101540000020F8BD70B504460D46042021E0206857
:1015500001F01DF8002821D161690A78002A14D011
:10156000C97A8906890EE52A08D02E2A06D00F29C5
:1015700004D008290BD00021A94211D00021204617
:10158000FFF76CFF002804D008E0042006E00121EA
:10159000F2E721690029DAD1002801D00021216178
:1015A00070BD70B50446002100F02FF80FE02169EE
:1015B000206800F0ECFF00280BD160690078E52876
:1015C0000AD0002808D001212046FFF747FF002855
:1015D000EDD0042807D007E02169206800F0D7FF8C
:1015E000050003D00FE0072005460CE02022002173
:1015F000606900F0C5FF0B22A169606900F0B8FFC7
:10160000216801200871284670BD70B50D46C18063
:1016100081680446012920D0206842698A421CD989
:10162000002905D10278032A05D1416A002902D098
:101630008078060117E0E1600189A9420DD9406A6E
:1016400017E0206800F060FC0146401C07D002292A
:1016500003D320684069884203D8022070BD01206E
:1016600070BDA81B85B2B542EBD2E1602068FFF7E0
:10167000A3FD2909401820612807C00D21683030DA
:1016800008186061002070BD10B500280AD1FEF76F
:10169000B9FF002807D0FFF7CEF8FF20FFF7C2F808
:1016A000FFF7C8F8012010BD70B51446002802D01D
:1016B0000124204670BD002907D001291CD0022931
:1016C00014D0032915D00424F3E70E4D1021284629
:1016D000FEF732FEFFF720F9002805D00124102183
:1016E0002846FEF72BFEE4E70024F8E7012040023D
:1016F00000E00820108002E0FEF750FF2060002488
:10170000D7E700000004004870B514460D46002BD2
:1017100002D0002810D101E0042070BD1A462146F5
:101720002846FFF727F80028F7D0FFF784F8FF20B6
:10173000FFF778F8FFF77EF8012070BD00207047B2
:1017400070B514460D46002B02D0002809D101E0E7
:10175000042070BD1A4621462846FFF7EFF80028FE
:10176000F7D0012070BD10B5044600F0D2F9002872
:1017700001D10021216010BD37B5144601A800F049
:1017800057FC002801DA0B203EBD0C498200885826
:101790000023002800D003700098002800D00370B8
:1017A0008850002801D0012C01D000203EBD00222D
:1017B00001A9684600F0FAF93EBD000024000020AF
:1017C000F7B58EB006000CD0D7060020FF0E7A08C1
:1017D000306052000FA902A800F0E8F9050003D01C
:1017E00087E0092011B0F0BD0BA8089002A80F995E
:1017F00000F030FB079C050002D1002C00D106252B
:10180000F806400F49D0002D0BD0042D03D102A8BB
:10181000FFF7C7FE054608200743079C002D08D0A8
:1018200067E0E07A1121084242D1780701D5082506
:101830005FE0380742D500F0C9FBA073010AE173ED
:10184000010C2174000E60740020E0722077607734
:10185000A077E0772146029800F03EFE0A90002132
:10186000204600F0E2FF0299012008710A98002842
:1018700022D002980A99C06A0190029800F079FF7C
:10188000050036D10A980299401EC8600199029855
:1018900000F07DFE05000DD02BE0002D29D1E07A6F
:1018A000C10601D5042524E0B90703D5C00701D03E
:1018B00007251EE0380701D520200743029821465E
:1018C000C06A3462F061B7710027F771029800F0C6
:1018D00003FE306120461D30FEF73FFC217FB760DC
:1018E0000002B76108437762F06002983060C088F8
:1018F000B080284676E713B584B0040007D00022F4
:1019000005A9684600F052F9002803D021E009201B
:1019100006B010BD0098206001A8A061204605997E
:1019200000F098FA002810D16169002906D0C87A21
:10193000C00611D5009800F0CFFDA06000980021EE
:10194000C088A0802046FFF760FE042804D000284D
:10195000DED000212160DBE70520FAE7FFB587B084
:10196000044600910A98002101601546204600F0C7
:10197000E8FF002811D1E07900280ED1A079C00736
:101980000AD0E168A0680127081A2146283105918C
:10199000854200D905468FE007200BB0F0BDA16855
:1019A000C8056ED120684B0A8278521E13401E066D
:1019B000360E12D1002906D0626A002A05D02046D0
:1019C000FFF7E4FB04E0206902E0616900F09CFAA3
:1019D000022814D3411C4FD0606161692068FFF771
:1019E000EBFB00280BD080190490680A029027D0E6
:1019F0003218206881788A4204D8029904E00220D3
:101A0000E071CAE7891B0291CBB24078049A009931
:101A1000FFF77AFE00282FD1A07940060DD5A169E5
:101A20000498081A0299884207D2410200980122BC
:101A300008185202059900F09BFD029846022FE01B
:101A4000A269049882421AD0A07940060BD520687A
:101A5000012340780599FFF773FE00280CD1A07987
:101A6000BF210840A071206801234078049A05999D
:101A7000FFF74AFE002802D0E77101208DE70498A5
:101A8000A06120890121C005C00D49020E1AAE4295
:101A900000D92E46011928313246009800F068FD21
:101AA000009880190090A0688019A0600A980068CA
:101AB00081190A98AD1B0160002D00D06FE700204E
:101AC0006BE7FEB50E46044600F03BFF002818D138
:101AD000002E17D06846A06100212046FFF732FD96
:101AE0000025042813D000280BD13146204600F0F1
:101AF0006FFA00212046FFF7B1FC042801D1002035
:101B00002561FEBD00212046FFF77FFDFEBD25615A
:101B1000EBE770B5044600F014FF00280FD1A1795F
:101B20008A060CD548060FD5206821464078012347
:101B30002831A269FFF704FE002801D0012070BD02
:101B4000A079BF210840A071E169206800F01FFD65
:101B50000028F4D1256A2021E87A0843E872207B26
:101B60002877A089000A6877E068000CA877E06809
:101B7000000EE8772846216900F057FE00F026FAAB
:101B8000A875010AE975010C2976000E6876002017
:101B9000A874E874A079DF210840A07121680120B1
:101BA0000871206800F049FE70BD0000F0B50746DE
:101BB0008DB0002038601646084600F039FA051E40
:101BC00002DA0B200DB0F0BD9B49A8000C58002C88
:101BD00012D03C602078002804D06078FFF7AEFD7A
:101BE000C1070BD000202070E8B26070FFF74CFDF9
:101BF000C10709D00320E5E70C20E3E7002E01D060
:101C0000400705D40020DDE7002E03D0400701D5B2
:101C10000A20D7E7002529462046FFF781FA012848
:101C200023D105AF28010619FF36EF363079002899
:101C300006D030460930FEF790FA317A00020843A8
:101C4000A9006D1C7850042DECD30026B0003D583F
:101C5000002D06D029462046FFF762FA002801D160
:101C60000AE00220761C042EF0D3032802D00028BC
:101C70007ED101E00120A5E7204631300A90C17AEB
:101C8000827A08021043C11FFF39FA3976D1204603
:101C900040300B90C188002906D11530FEF75DFA5F
:101CA00001020B98007D0143A1610B980891007817
:101CB000E070012801D0022860D1484300902046FE
:101CC00020300990467FA670002E57D0701E064225
:101CD00054D120464130427801460378100218431F
:101CE00020810790000749D1C8788978000208430D
:101CF00007D120465130FEF730FA0B990002097CDB
:101D00000843E18F0591002938D0009A8A18079975
:101D1000090951180291884230D3401A3146FEF722
:101D2000FFF900282AD045490126884200D302261F
:101D30004349884200D30326871C6761E561059803
:101D40002818206202996918A162032E18D00799F9
:101D5000002913D0009940186062022E1ED078002E
:101D60003818F9074008C90F4018FF30FF3000E06D
:101D700004E001300899400A814211D20D2021E788
:101D800007980028FAD120465D30FEF7E6F90B9956
:101D90000002097F08436062B800E6E77800E4E7E4
:101DA0000020C0432061E06080206071032E3AD1A2
:101DB0006020005B012836D1691C204600F0E7FB5B
:101DC000002830D16071112040012018C0891D49C0
:101DD000884228D10A98FEF7C0F909990002097CC7
:101DE0000843194988421ED118482018FEF7B5F952
:101DF000E51DFF35FA35297D000208431449884264
:101E000011D11248001D2018FEF7A7F9297E000203
:101E1000084320610D4808302018FEF79EF9297FFD
:101E200000020843E06004482670001F0188491C36
:101E30000180E180E6E6000024000020F60F0000AB
:101E4000F6FF000055AA0000525261411502000041
:101E50007272416173B50446019801782F2901D04F
:101E60005C2901D1401C01900025A56001980078F3
:101E7000202805D200212046FFF7C7FB65617CBD05
:101E800001A92046FFF7F6F90028F8D100212046E5
:101E9000FFF7BBFB002822D12169206800F077FB07
:101EA00000281CD161690A78002A05D0CA7A120775
:101EB0000FD40A23A26903E0042010E05B1E06D3BE
:101EC0000D781678491C521CAD1BF7D001E0002D8F
:101ED00005D000212046FFF7C1FA0028DCD0A16917
:101EE0000028C97A05D00428C9D14907C7D40520DC
:101EF0007CBD4907FCD46169C87AC006F7D5206863
:101F000000F0EAFAA060BBE7F8B50C4605460229E6
:101F100002D36869A04201D80120F8BD28780128C1
:101F200004D0022828D003283FD136E060080619E3
:101F3000286A710A4118284600F029FB002834D18C
:101F4000F005C00D40192030077C761C286A710A04
:101F50004118284600F01BFB002826D1F005C00DD3
:101F600040192030007C00023843E10701D000090D
:101F7000F8BD0005000DF8BD286A210A4118284661
:101F800000F005FB002810D12006C00D40193030AC
:101F90004178027808021043F8BD286AE109411827
:101FA000284600F0F4FA002802D00020C043F8BD13
:101FB0006006C00D4019044630343130FEF7CDF8CC
:101FC00021780002084300010009F8BD0020704795
:101FD00070B50E460C4601690934002925D04569C3
:101FE00000202E22295C401C202908D0052900D180
:101FF000E521092801D12270641C2170641C0B2882
:10200000F0D3E87A307228461D30FEF7A6F8297F13
:10201000000208433060687E297E00020843B080D9
:10202000E87DA97D00020843F0800020207070BD8B
:1020300010B503460022D24319681046002907D084
:1020400008783038092802D24C783A2C01D0002088
:1020500010BD891C19600128FADB104610BD000074
:10206000F8B505464B260021B602084600F0CCF92B
:102070000021222000F0E2F9012209201102C0060D
:10208000FEF75EF9002240210B48FEF759F90024C3
:102090000A4F280A00903846009900F099FBE9B2EF
:1020A000384600F095FB641CB442F4D30122402171
:1020B0000148FEF745F9F8BD000400480030014032
:1020C000FFB583B003981F460C460191F0283DD21E
:1020D000FF204130844239D2002535E00C2F02D058
:1020E000102F09D011E005980C21484318494018D9
:1020F0004019FF38813807E005981649000140185B
:102100004019FF38FF38023806780020009030066A
:1021100004D521460C9A039800F050F87006060E7C
:10212000641C0198A4B2201AB84205D10398019CFE
:10213000401C80B2039005E00098401CC0B20090A3
:102140000828E4D36D1CEDB2BD42C7D307B0F0BD83
:102150006E290008E22D0008FFB583B016460D4633
:102160000446F02828D20699FF2041304F088542C6
:1021700022D2F021C91B02910699401A01903078B1
:10218000002819D00298A0420AD2069800242818E4
:1021900085B20198A84203D200252846FFF760FFC8
:1021A0000C980090327829462046069BFFF788FF5E
:1021B000381984B2761CE2E707B0F0BD10B51446BA
:1021C000F0280CD2FF224132914208D200F01CF9D3
:1021D0000021222000F032F9204600F05BF910BD0A
:1021E00010B5012240218548FEF7AAF8012280217E
:1021F0008348FEF7A5F80021EA2000F041F92021EC
:10220000EB2000F03DF90C21EC2000F039F9C4215D
:10221000ED2000F035F93821E82000F031F91021E7
:10222000E92000F02DF90121F12000F029F9102119
:10223000F22000F025F90121402000F021F90021D1
:10224000412000F01DF90021422000F019F9102171
:10225000432000F015F90E21442000F011F924214B
:10226000452000F00DF90421462000F009F9502125
:10227000472000F005F90221482000F001F9132160
:10228000492000F0FDF819214A2000F0F9F8192141
:102290004B2000F0F5F816214C2000F0F1F81B213E
:1022A000502000F0EDF83121512000F0E9F82F2105
:1022B000522000F0E5F83F21532000F0E1F83F21E3
:1022C000542000F0DDF83E21552000F0D9F82F21F0
:1022D000562000F0D5F87B21572000F0D1F80921D5
:1022E000582000F0CDF80621592000F0C9F8062149
:1022F0005A2000F0C5F80C215B2000F0C1F81D2128
:102300005C2000F0BDF8CC215D2000F0B9F81B2165
:10231000084600F0B5F801211A2000F0B1F82F218D
:10232000242000F0ADF85721252000F0A9F88821DD
:10233000232000F0A5F83421182000F0A1F8012195
:10234000192000F09DF80021012000F099F8882163
:102350001F2000F095F80520FFF726F880211F20A8
:1023600000F08EF80520FFF71FF890211F2000F0E5
:1023700087F80520FFF718F8D0211F2000F080F81B
:102380000520FFF711F80521172000F079F800214A
:10239000362000F075F83821282000F071F8282048
:1023A000FFF702F83F21282000F06AF818211620D4
:1023B00000F066F80021022000F062F800210320FE
:1023C00000F05EF80021042000F05AF8EF2105200B
:1023D00000F056F80021062000F052F800210720F6
:1023E00000F04EF80121082000F04AF83F210920B2
:1023F00000F046F80348FFF733FE10BD0004004824
:1024000000080048FFFF000070B50C460546F028A4
:1024100013D2FF20413084420FD2290A022000F05B
:102420002FF8E9B2032000F02BF8210A062000F073
:1024300027F8E1B2072000F023F870BD70B505461B
:10244000FF2309200133C006002901D0012200E04A
:1024500000221946FDF774FF074C00224021204658
:10246000FDF76EFF2946054800F0B2F90122402130
:102470002046FDF765FF70BD0004004800300140B4
:1024800010B50C460021FFF7D9FF01212046FFF7C8
:10249000D5FF10BD70B50446012209201102C00607
:1024A000FDF74EFF0A4D002240212846FDF748FF68
:1024B000084E210A304600F08BF9E1B2304600F0B8
:1024C00087F9012240212846FDF73AFF70BD000040
:1024D00000040048003001400246C87E8B7E0002A6
:1024E00012781843032A05D14A7D0B7D1102194346
:1024F00009040843704700F016FAFDF7EBFFFDF7FB
:1025000049FE0000F0B50B30C108C900144F002689
:10251000144A0FE003688B420BD38B4205D95C1A37
:10252000431845685D601C6000E04368136002C0AA
:1025300004E0021D10680028ECD13046002803D1C9
:102540003868002801D00020F0BD064A0648106017
:10255000064A121AD208D20044C001203860D7E7D8
:102560002C00002028000020FC080020F80A002091
:1025700003E00B78491C0370401C521EF9D27047CF
:10258000C9B201E00170401C521EFBD2704770B509
:102590000446C06A0D46A84210D0204600F09BF9C0
:1025A000002808D12146607801232A463031FFF700
:1025B000ABF8002801D0012070BDE562002070BD9D
:1025C000FEB5072001214004FDF7C4FEE020009085
:1025D000022168460171002585710124C471092713
:1025E0004471FF0669463846FDF75EFE002205216C
:1025F0003846FDF791FE002206213846FDF78CFE95
:10260000002207213846FDF787FE402000906846EB
:1026100004718571C4710326467169461448FDF73B
:1026200043FE20020090684604718571C4714671B2
:1026300069463846FDF738FE8020009068460471F0
:102640008571C471467169460A48FDF72DFE302038
:102650000090684604718571C471467169460448EA
:10266000FDF722FE012220210148FDF769FEFEBD93
:102670000004004800080048F8B517460D46044617
:10268000022902D36069A84201D8022609E0207815
:10269000012808D0022840D003284ED0022601206D
:1026A00020713046F8BD680840190090216A400A40
:1026B00009182046FFF76BFF0600F0D10098C0050F
:1026C000C00D00193030E90705D001780907090F5E
:1026D0003A01114300E0394601700098401C009017
:1026E000012020710098216A400A09182046FFF74E
:1026F0004EFF0600D3D10098C005C00D0019303040
:10270000E90702D03905090E05E001783A05090903
:102710000901120F11430170C1E7206A290A41180B
:102720002046FFF734FF0600B9D12806C00D001976
:1027300030300770390A4170B1E7206AE909411861
:102740002046FFF724FF0600A9D16806C00D001936
:10275000054630353130FDF700FD0002010F090755
:1027600039432970080A6870080CA870080EE870D0
:1027700095E7F8B50F460646022916D37069B842A8
:1027800013D900251FE039463046FFF7BDFB040092
:102790001CD0012C09D0601C09D0002239463046DB
:1027A000FFF76AFF050011D103E002250EE00125C5
:1027B0000CE03069411C05D0401C3061707901216A
:1027C0000843707127467069B842DCD82846F8BDC6
:1027D00070B50E460546002403E0641CE4B2C82C24
:1027E0000FD802212846FEF7F4F80028F5D031462C
:1027F0002846FEF721F9002405E0641CE4B2C82C49
:1028000001D9002070BD01212846FEF7E2F800281A
:10281000F3D02846FEF70EF9044680212846FEF73D
:10282000D8F80028F9D1204670BD81760A0AC27610
:102830000A0C0275090E4175704770B5044600F028
:102840004AF8050045D1207803283AD1607901285B
:1028500037D142022046303000210646FFF790FE75
:1028600011204001552120188173AA21C1732046EF
:102870005221203001744174612181744122C2745B
:10288000FF307223E130037543758275C17521698C
:1028900001760A0A42760A0C8276090EC176E16850
:1028A00001770A0A42770A0C8277090EC177E2693A
:1028B0000123521CE26260783146FEF741FF00209E
:1028C0006071002260781146FEF7EEFE002800D00D
:1028D0000125284670BDF8B504460079002820D0AF
:1028E000E56A21463031607801232A460F46FEF71B
:1028F00027FF002801D00120F8BD00202071206AA8
:10290000A169281A88420CD2E67808E0A069012360
:10291000451960782A463946FEF712FF761E022EC8
:10292000F4D20020F8BD00B589B06846FDF736FD49
:102930000198FEF723FDFEF751FDFFF751FC09B0AA
:1029400000BD10B5002809D00168002906D00A781A
:10295000002A03D0CA888088824201D0092010BD95
:102960004878FEF7EBFEC007F9D0032010BD000049
:1029700000000000000000000000000000003F40D8
:102980000000000000000000300040003000400067
:10299000000009000BC03D000BC03D00090018C03D
:1029A00024407FE0224031800000180024C01B003A
:1029B0000D803240018003801C4027401C8007406E
:1029C0000040100060000000000000000000000057
:1029D000000000001F8020404020000040202040D8
:1029E0001F8000000000090006001F80060009008B
:1029F0000000040004003F800400040000000010F8
:102A0000006000000000000000000400040004005A
:102A1000040004000000000000400000000000006E
:102A20000000002001C006003800400000001F80A8
:102A30002040204020401F800000000010403FC088
:102A400000400000000018C02140224024401840EF
:102A5000000010802040244024401B800000020021
:102A60000D0011003FC0014000003C802440244084
:102A70002440238000001F802440244034400380F1
:102A800000003000200027C03800200000001B801C
:102A90002440244024401B8000001C0022C022400F
:102AA00022401F80000000000000084000000000DD
:102AB00000000000000004600000000000000000B2
:102AC00004000A00110020804040090009000900AC
:102AD00009000900000000004040208011000A00A9
:102AE00004001800200023402400180000001F806C
:102AF0002040274029401F400000004007C0390007
:102B00000F0001C0004020403FC0244024401B80F3
:102B100000001F80204020402040308000002040E6
:102B20003FC0204020401F80000020403FC0244084
:102B30002E4030C0000020403FC024402E00300016
:102B400000000F001080204022403380020020400F
:102B50003FC0040004003FC02040204020403FC050
:102B60002040204000000060202020203FC02000A6
:102B7000200020403FC024400B0030C020402040B7
:102B80003FC020400040004000C03FC03C0003C0A8
:102B90003C003FC0000020403FC00C4023003FC02D
:102BA00020001F802040204020401F800000204047
:102BB0003FC024402400180000001F802140214015
:102BC00020E01FA0000020403FC02440260019C084
:102BD000004018C0244024402240318000003000D2
:102BE00020403FC020403000000020003F800040D7
:102BF00000403F80200020003E0001C00700380058
:102C00002000380007C03C0007C03800000020400A
:102C100039C0060039C0204000002000384007C0FD
:102C2000384020000000304021C02640384020C0FD
:102C30000000000000007FE0402040200000000075
:102C400070000C0003800040000000004020402085
:102C50007FE0000000000000200040002000000095
:102C60000000001000100010001000100010000004
:102C7000000040000000000000000000028005404D
:102C8000054003C0004020003FC0044004400380D2
:102C900000000000038004400440064000000000E3
:102CA0000380044024403FC00040000003800540F2
:102CB000054003400000000004401FC024402440A1
:102CC0002000000002E0055005500650042020407E
:102CD0003FC00440040003C000400000044027C07F
:102CE00000400000000000100010041027E0000069
:102CF000000020403FC00140070004C004402040C5
:102D000020403FC000400040000007C0040007C052
:102D1000040003C00000044007C00440040003C0D6
:102D200000400000038004400440038000000410C1
:102D300007F00450044003800000000003800440BA
:102D4000045007F00010044007C0024004000400D3
:102D50000000000006400540054004C000000000DF
:102D600004001F8004400040000004000780004071
:102D7000044007C000400400070004C001800600B2
:102D80000400060001C0070001C006000000044066
:102D900006C0010006C0044000000410071004E053
:102DA0000180060004000000044005C00640044005
:102DB00000000000000004007BE040200000000054
:102DC00000000000FFF000000000000040207BE059
:102DD00004000000000040008000400020002000AF
:102DE00040000000000000000000000000000000A3
:102DF00000000000000000001FCC000C00000000DC
:102E00000000000008003000600008003000600092
:102E10000000022003FC1E20022003FC1E200220D2
:102E2000000000000E1811043FFF10840C78000011
:102E300000000F0010840F3800C007781884007855
:102E4000000000780F8410C411240E9800E4008460
:102E5000000808006800700000000000000000008A
:102E6000000000000000000007E0181820044002E5
:102E70000000000040022004181807E000000000D5
:102E800000000240024001800FF001800240024039
:102E900000000080008000800FF80080008000802B
:102EA00000000001000D000E000000000000000006
:102EB0000000000000800080008000800080008012
:102EC00000800000000C000C00000000000000006A
:102ED00000000000000600180060018006001800D5
:102EE0002000000007F0080810041004080807F08C
:102EF00000000000080408041FFC00040004000097
:102F0000000000000E0C10141024104411840E0C4C
:102F1000000000000C1810041104110412880C7039
:102F20000000000000E00320042408241FFC00240B
:102F3000000000001F981084110411041088107004
:102F40000000000007F008881104110418880070C0
:102F5000000000001C00100010FC13001C001000FA
:102F6000000000000E3811441084108411440E3803
:102F7000000000000700088C10441044088807F087
:102F80000000000000000000030C030C0000000023
:102F90000000000000000001010600000000000029
:102FA0000000000000800140022004100808100406
:102FB0000000022002200220022002200220022023
:102FC00000000000100408080410022001400080E6
:102FD000000000000E001200100C106C10800F009A
:102FE000000003E00C1813E4142417C4082807D0C9
:102FF00000000004003C03C41C40074000E4001C27
:10300000000410041FFC1104110411040E88007048
:10301000000003E00C1810041004100410081C1029
:10302000000010041FFC100410041004080807F02E
:10303000000010041FFC1104110417C41004081828
:10304000000010041FFC1104110017C0100008003C
:10305000000003E00C181004100410441C78004019
:10306000000010041FFC10840080008010841FFCEE
:1030700010040000100410041FFC100410040000D1
:10308000000000030001100110011FFE10001000DD
:10309000000010041FFC110403801464181C1004A9
:1030A000000010041FFC1004000400040004000CC5
:1030B000000010041FFC1F0000FC1F001FFC100478
:1030C000000010041FFC0C04030000E010181FFC9B
:1030D000100007F00808100410041004080807F096
:1030E000000010041FFC10841080108010800F005E
:1030F000000007F0081810241024101C080A07F21A
:10310000000010041FFC1104110011C011300E0C3E
:10311000000400000E1C11041084108410441C389C
:1031200000001800100010041FFC1004100018000C
:10313000000010001FF810040004000410041FF821
:10314000100010001E0011E0001C007013801C0015
:1031500010001FC0103C00E01F0000E0103C1FC02A
:1031600000001004180C163401C001C01634180CED
:10317000100410001C00130400FC13041C001000B9
:1031800000000804101C1064108413041C041018A0
:1031900000000000000000007FFE400240024002EC
:1031A0000000000030000C0003800060001C0003E1
:1031B000000000004002400240027FFE00000000CC
:1031C00000000000000020004000400040002000FF
:1031D00000000001000100010001000100010001E8
:1031E000000100004000400020000000000000003E
:1031F000000000000098012401440144014400FC47
:10320000000410001FFC0088010401040088007005
:10321000000000000070008801040104010400881F
:1032200000000000007000880104010411081FFC68
:103230000004000000F8014401440144014400C8B6
:1032400000000000010401040FFC1104110411002E
:103250001800000000D601290129012901C9010631
:10326000000010041FFC008401000100010400FCA8
:10327000000400000104190419FC0004000400000B
:1032800000000000000300010101190119FE000007
:10329000000010041FFC0024004001B4010C0104D4
:1032A00000000000100410041FFC000400040000D3
:1032B0000000010401FC0104010001FC0104010003
:1032C00000FC010401FC008401000100010400FC79
:1032D0000004000000F8010401040104010400F8E6
:1032E0000000010101FF0085010401040088007055
:1032F000000000000070008801040104010501FFC6
:1033000000010104010401FC0084010401000180AA
:103310000000000000CC01240124012401240198B4
:10332000000000000100010007F801040104000092
:103330000000010001F8000400040004010801FC81
:103340000004010001800170000C00100160018088
:10335000010001F0010C003001C00030010C01F04F
:10336000010000000104018C00740170018C010453
:103370000000010101810171000E0018016001804F
:10338000010000000184010C013401440184010C9E
:103390000000000000000000000001003EFC4002B0
:1033A00040020000000000000000FFFF00000000DD
:1033B00000000000400240023EFC0100000000004E
:1033C00000000000600080008000400040002000FD
:1033D0002000808182838485868788898A8B8C8D72
:1033E0008E8F90919293949596979899AD9B8C9D82
:1033F000AE9FA021A2A3A4A5A6A7A8A9AAABACADE5
:10340000AEAFB0B1B2B3B4B5B6B7B8B9BABBBCBD64
:10341000BEBFC0C1C2C3C4C5C6C7C8C9CACBCCCD54
:10342000CECFD0D1D2D3D4D5D6D7D8D9DADBDCDD44
:10343000DEDFC0C1C2C3C4C5C6C7C8C9CACBCCCDF4
:10344000CECFD0D1D2D3D4D5D6F7D8D9DADBDCDD04
:10345000DE9F0000743400080000002030000000EF
:10346000A40D0008A434000830000020C80E00009D
:10347000B40D000800000000000000000000000083
:103480000000000000010203040102030406070813
:103490000900000000000000000000000000000023
:0434A0000000000028
:04000005080000B53A
:00000001FF
