:020000040800F2
:10000000180F00209D010008A5010008A7010008A5
:10001000A9010008AB010008AD01000800000000C4
:10002000000000000000000000000000AF01000818
:10003000B101000800000000B3010008B50100088C
:10004000B7010008B7010008B7010008B7010008B0
:10005000B7010008B7010008B7010008B7010008A0
:10006000B7010008B7010008B7010008B701000890
:10007000B7010008B7010008B7010008B701000880
:10008000B7010008B7010008B7010008B701000870
:10009000B7010008B7010008B7010008B701000860
:1000A000B7010008B7010008B7010008B701000850
:1000B000B7010008B701000800000000B701000800
:1000C000B70100080000000000000000B7010008B0
:1000D00000000000B7010008B7010008B7010008E0
:1000E000B7010008B7010008000000000000000090
:1000F0000000000000000000000000000000000000
:1001000000000000000000000000000000000000EF
:100110000000000000000000B7010008B70100085F
:1001200000000000000000000000000000000000CF
:1001300000000000000000000000000000000000BF
:10014000B7010008B701000800000000B70100086F
:10015000B7010008B7010008B7010008B70100089F
:10016000B7010008B701000800000000000000000F
:10017000000000000000000000000000000000007F
:1001800000000000B7010008DFF80CD000F036F8DE
:10019000004800471F250008180F00200648804728
:1001A00006480047FEE7FEE7FEE7FEE7FEE7FEE75C
:1001B000FEE7FEE7FEE7FEE7B10E00088901000852
:1001C000421C10F8011B0029FBD1801A704730B582
:1001D0000B46014600202022012409E021FA02F505
:1001E0009D4205D303FA02F5491B04FA02F528449F
:1001F000151EA2F10102F1DC30BD0000064C074DD6
:1002000006E0E06840F0010394E8070098471034E6
:10021000AC42F6D3FFF7BCFF20350008403500089C
:100220008AB00020089026A101A801F0D0FB4FF46D
:10023000784548B10D284FF01003009533D021A226
:100240003021002001F0A0FF23491DA000F06EFD29
:10025000DFF88480064601244FF47A7708EB8400A7
:100260001EA150F8042C204800F05AFE08A91E4890
:1002700000F04EFDD0B101284FF0100300951BD0C7
:100280001AA25021002001F07FFF641CB44200D963
:100290000124384601F042F9384601F03FF938466A
:1002A00001F03CF9DAE718A22021CAE700210E4A42
:1002B000084600F07FFDE8E719A24021E2E70000D0
:1002C0002F00000053445F434152445F4F50454E5E
:1002D0005F4641494C00000050000020252D31317F
:1002E0002E31317300000000E402002053445F43CC
:1002F0004152445F46494C455F4E4F545F53555001
:10030000504F52544544000053445F434152445FB0
:100310004E4F545F464F524D4154544544000000E7
:1003200053445F434152445F4E4F545F464F554ED6
:1003300044000000F0B50022012603240D6806FAEF
:1003400002F31D409D422BD10D79012D01D0022DCC
:1003500013D18768550004FA05FC27EA0C0787606B
:100360004F79AF4085682F43876085889D4385809E
:1003700085888B7993401D4385800568570004FA72
:1003800007F39D4305600D79D0F800C0BD4045EAF4
:100390000C050560C5689D43CB79BB402B43C3600A
:1003A000521C102ACAD3F0BD4B07DB0E9A40C90875
:1003B00010B500EB8100016A0F249C40A14301624B
:1003C000016A1143016210BD018570478161704768
:1003D0000AB181617047018570470000044A002915
:1003E000516901D0014300E0814351617047000031
:1003F00000100240044A0029916901D0014300E045
:100400008143916170470000001002402DE9F04FD8
:10041000B24900224B68B24E13F00C0303D0042BF8
:1004200001D0082B01D0066012E04A684B6802F444
:1004300070124FF0020413F4803F04EB92423DD05F
:10044000CB6A03F00F035B1CB6FBF3F35A43026065
:100450008A460B4649680F24DFF8889204EA111196
:1004600019F801C0016821FA0CF444605D684FF08E
:10047000070808EA152719F8075024FA05F58560DA
:100480005F6808EAD72719F8077024FA07F4C460F0
:10049000D3F82C804FF01F0BDFF848E20BEA181955
:1004A00009F00F080EF1100E3EF818305FEAC96827
:1004B00007D533B1B2FBF3F3036103E08A4B5A4330
:1004C000C5E70161DAF82C800BEA582909F00F081A
:1004D0003EF818805FEAC96306D5B8F1000F03D073
:1004E000B2FBF8F3436100E04161DAF83080534633
:1004F0005FEAC86801D4866100E08161D3F830808A
:100500005FEA886801D4C66100E0C161D3F8308039
:100510005FEA486801D4066200E00162D3F83080E7
:100520005FEAC85808D5914206D1674504D14FEA21
:100530004208C0F8248000E04462D3F830805FEACB
:10054000C84808D5914206D1674504D14FEA420810
:10055000C0F8288000E08462D3F830805FEA8858D1
:1005600008D5914206D1674504D14FEA4208C0F848
:100570002C8000E0C462D3F830805FEA485808D588
:10058000914206D1674504D14FEA4208C0F8448041
:1005900000E04464D3F830805FEA085808D59142FF
:1005A00006D1674504D14FEA4208C0F8488000E010
:1005B0008464D3F830805FEA884806D5914204D13C
:1005C000674502D15200C26400E084641A6B94074C
:1005D0004FF400420ED01C6B04F00304012C0BD02E
:1005E0001C6B04F00304022C08D01C6BE443A4072A
:1005F00006D006E0056304E0016302E0026300E068
:1006000006631C6B14F4403F0FD01C6BC4F3014411
:10061000012C0CD01C6BC4F30144022C09D01C6BC0
:10062000C4F30144032C06D006E0456304E04163B3
:1006300002E0426300E046631C6B14F4402F0FD0CD
:100640001C6BC4F38144012C0CD01C6BC4F381449B
:10065000022C09D01C6BC4F38144032C06D006E0A5
:10066000856304E0816302E0826300E086631C6BC3
:1006700014F4401F0FD01C6BC4F30154012C0CD098
:100680001C6BC4F30154022C09D01C6BC4F301543D
:10069000032C06D006E0C56304E0C16302E0C26338
:1006A00000E0C6631C6B14F4400F11D01C6BC4F344
:1006B0008154012C0ED0196BC1F3815102290BD04A
:1006C000196BC1F38151032900D10664BDE8F08F95
:1006D0000564FBE70164F9E70264F7E700100240F4
:1006E00000127A000E00002000093D0038B50024F9
:1006F00022460DA10D4801F0ABF848B14FF4784007
:10070000102300900AA21946002001F03DFD38BDDB
:10071000064D643D0B2001F009FF45F82400641CE0
:10072000192CF7D338BD00002F000000B4000020C2
:1007300046415446535F4E4F545F4D4F554E5445BE
:100740004400000010B510210348FFF73FFEBDE84C
:100750001040FF2000F070B90004004870B5054655
:1007600001220021092000F0ADF9040004D110217C
:10077000284600F041F90446FFF7E4FF0CB10120E0
:1007800070BD002070BD70B505464FF6FF7401E0E6
:10079000641EA4B2FF2000F04FF9A84202D0002C42
:1007A000F6D102E00CB1002070BDFF2070BD1FB576
:1007B0006846FFF7D3FF10B1002004B010BD9DF8CC
:1007C00000100120B0EB911F09D19DF808209DF881
:1007D000091000EB0220084400048009EDE79DF8B1
:1007E00005009DF80A1000F00F0000EBD1109DF8F5
:1007F00009109DF8072001F0030100EB41019DF86D
:100800000800800900EB82009DF8062002F0030238
:1008100000EB8220401CC91F8840CEE72DE9F84339
:1008200010215848FFF7D2FD0024FF2000F004F902
:10083000641CA4B20A2CF8D31426534D00270021BF
:100840009522084600F03EF90446012805D0300004
:10085000A6F10106B6B2F2D188E02F7087224FF4DC
:10086000D571082000F02EF94FF6FE78012820D02F
:1008700001220021372000F025F901220021292042
:1008800000F020F901285BD802202870464601229A
:100890000021372000F016F901220021292000F064
:1008A00011F904005BD03000A6F10106B6B2EED11A
:1008B00055E000266F46FF2000F0BEF8B855761CC4
:1008C000B6B2042EF7D39DF80200012803D19DF89B
:1008D0000300AA2806D0FFF735FF287878B3002058
:1008E000BDE8F88346464FF08048012200213720BA
:1008F00000F0E8F801224146292000F0E3F8040066
:1009000004D03000A6F10106B6B2EED17EB30122CA
:1009100000213A2000F0D6F848BB0026FF2000F066
:100920008BF8B855761CB6B2042EF7D39DF80000AC
:10093000400601D5062000E00420287017E01CE0E6
:1009400001202870464601220021104600F0BAF826
:10095000040004D03000A6F10106B6B2F3D12EB1E6
:1009600001225102102000F0ADF800B12F70FFF706
:10097000E9FE28780028B2D10CB12046B0E7AA20C1
:10098000AEE70000000400480C0000202DE9F04113
:100990000646184815460078062800D049024FF44C
:1009A0000077012D4FF0010219D0122000F08AF8D3
:1009B0003946304600F020F86D1E044606F50076F4
:1009C00015F0FF0501D0002CF2D0012200210C20EF
:1009D00000F078F8FFF7B6FE2046BDE8F081112060
:1009E00000F070F80400F5D13946304600F004F804
:1009F0000446EFE70C00002070B504460D46FE20CB
:100A0000FFF7C1FE40B1012070BDFF21304601F06B
:100A100009FF04F8010B00E0064E2800A5F10105CE
:100A2000ADB2F2D1FF2000F007F8FF2000F004F88B
:100A3000002070BD003001400146014801F0F2BEC7
:100A4000003001407047704710B510210548FFF78E
:100A5000BBFC00F068F8002802D0FFF773FE01200D
:100A600010BD0000000400482DE9F0410C46054689
:100A700000F059F810B10120BDE8F0812046FFF7E1
:100A8000DBFFFD2C19D00E4E00247715295D304672
:100A900001F0C8FE641CA4B2BC42F7D3FF20FFF7EC
:100AA000CBFFFF20FFF7C8FFFF20FFF7C5FF00F0D7
:100AB0001F00052801D00220DEE70020DCE700004F
:100AC0000030014070B516460C460546FFF73AFE69
:100AD000FFF7BAFF08B1FF2070BD45F04000FFF7F7
:100AE000ABFF200EFFF7A8FFC4F30740FFF7A4FFFA
:100AF000C4F30720FFF7A0FFE0B2FFF79DFF3046E9
:100B0000FFF79AFF0C2D02D1FF20FFF795FF1F245E
:100B1000FF20FFF791FF0106DED52100A4F10104BB
:100B2000E4B2F5D170BD70B500246FF07F45FF20B1
:100B3000FFF782FFFF2804D0641CAC42F7D30120EA
:100B400070BD002070BD000070B506461D481546FA
:100B50000C460078062800D04C02012D13D0012845
:100B600009D0012200213720FFF7ACFF01222946DE
:100B70001720FFF7A7FF012221461920FFF7A2FF48
:100B800004000AD01AE0012221461820FFF79AFF3C
:100B9000040013D1FE2130460DE0FC213046FFF762
:100BA00063FF6D1E06F5007615F0FF0501D00028E5
:100BB000F3D0FD210020FFF757FF0446FFF7C2FDE9
:100BC000204670BD0C0000200029018802D041F0B1
:100BD000400101E021F04001018070470246002001
:100BE00012890A4200D00120704730B54A88B2F518
:100BF000827F1ED0828822F470638A881A438280A2
:100C000002880C8902F44153CA888D8922434C8999
:100C10002C43CD892C4322430C884D882C432243FE
:100C20001A430280828B22F400628283098A018245
:100C300030BD02880C8902F44153CA888D89224351
:100C40004C892C43CD892C4322430C8844F4827474
:100C500022431A430280828822F470638A881A43EE
:100C60008280DFE7007B7047828822F48052828096
:100C700082880A4382807047017370470CB5002157
:100C8000214801910091026842F4803202604FF4E1
:100C9000A043026802F400320092019A521C0192B1
:100CA000009A12B9019A9A42F3D10268920329D5A7
:100CB0000121164A0091122111604168416041688A
:100CC0004160416841F480614160416821F47C11D8
:100CD0004160416841F4E8114160016841F0807170
:100CE000016001688901FCD5416821F00301416080
:100CF000416841F0020141604168C1F3810102296C
:100D0000FAD10CBD00910CBD001002400020024041
:100D100010B5014600240122034800F0BBFD00B1DC
:100D20000224204610BD0000EC0600202DE9F04111
:100D30000F460446014600261A4800F048FE68BBEC
:100D40002046FFF73DFA174D0446183D1549154852
:100D5000183900F017FF08BB687AF8B12E28F5D0D3
:100D6000287AC006F2D4641C2819407A2E28FAD1B9
:100D7000192E11D22819817A42290DD1C17A4D2913
:100D80000AD1007B502807D1064A57F826000F3AAF
:100D900005A100F0C5F8761C0024D7E73046BDE871
:100DA000F0810000D0060020252D31312E31317325
:100DB000000000002DE9F0471546ADF50A7D884694
:100DC000824601222946684600F064FD304B1E220F
:100DD0003049684600F02BFE2E4841898289868B77
:100DE00041EA0244684600F02AFD182E04D0002093
:100DF0000DF50A7DBDE8F08701222946684600F01E
:100E000049FD234B22462349684600F010FEC6EBFD
:100E100006111F20002500EB011040091D4E4FEA6E
:100E2000400906EB40071A4B4A461A49684600F04B
:100E3000FEFD3946164B4A46684600F0F8FD08EBC1
:100E4000050081B2504601F0F5FA0021222001F0A0
:100E50000DFB002404EB440080B23118305C8A782A
:100E60004978D208D202890842EA411141EAD00009
:100E700001F02AFB641CA4B2F02CEBD36D1CADB2C4
:100E8000B5F5A07FCFD3684600F0D9FC0120AFE7CD
:100E900004000020F80200204FF0E0210428086937
:100EA00003D020F004000861704740F00400FAE726
:100EB000164810B5016841F47001016014480168DA
:100EC00041F0010101604168124A1140416001682E
:100ED000114A11400160016821F4802101604168DC
:100EE00021F4FE014160C16A21F00F01C162016B72
:100EF0000A4A1140016300218160FFF7BFFE0349E8
:100F00004FF000608039086010BD000088ED00E0FF
:100F1000001002400CC07FF8FFFFF6FECCFC00FF83
:100F20000FB4084B10B504A902AA039800F01CF8EE
:100F3000044602A9002000F0BCF9204610BC5DF870
:100F400014FB0000B312000802E008C8121F08C119
:100F5000002AFAD170477047002001E001C1121F3A
:100F6000002AFBD1704700002DE9FF4F8BB0884667
:100F70000546002667E125287AD100246D1CB64974
:100F8000A146A24601222B78203B02FA03F0084238
:100F900002D004436D1CF6E728782A2810D06FF0A1
:100FA0002F022878A0F13001092915D809EB890111
:100FB00002EB410144F0020400EB01096D1CF0E773
:100FC00058F8049BB9F1000F03DA44F40054C9F156
:100FD000000944F002046D1C28782E2817D115F85A
:100FE000010F44F004042A280ED06FF02F02287855
:100FF000A0F1300109290AD80AEB8A0102EB41016C
:1010000000EB010A6D1CF2E758F804AB6D1C287860
:101010006C280FD006DC4C2817D068280DD06A2821
:1010200014D104E0742810D07A280FD10DE044F4D4
:1010300000140AE044F4801401E044F44014697898
:10104000814202D16D1C04F580146D1C287869283A
:1010500066D007DC002876D0632828D0642807D122
:101060005EE005E06E2808D073282AD075287AD073
:10107000DDE90D129047761CE4E0C4F3025002282B
:1010800009D003280DD0D8F8001004280DD00E6028
:1010900008F10408D6E0D8F80010F217C1E90062A0
:1010A000F6E7D8F800100E80F2E70E70F0E718F8B7
:1010B000041B8DF8001000208DF80100EB46012084
:1010C00003E058F804BB4FF0FF3061074FF0000712
:1010D00001D40AE07F1C57450DDA8742FADB1BF882
:1010E00007100029F6D106E07F1C8742FCDB1BF8C5
:1010F00007100029F8D1DDE90D23A9EB070081468F
:10110000214600F0BEF83044C61904E0DDE90D12B6
:101110001BF8010B90477F1EF8D2214648468CE011
:1011200058F8040BC4F302514FF00A0B032900D105
:1011300000B2042900D140B2002806DAC0F1000054
:101140004FF02D0104E082E00DE0210504D52B21B4
:101150008DF82410012103E0E10710D02021F7E7EA
:1011600008AF089114E058F8040BC4F302514FF093
:101170000A0B032900D180B2042900D1C0B200219A
:10118000EEE75946FFF723F801F1300107F8011D9A
:101190000028F6D1ADEB070000F1200B600702D567
:1011A00024F4803401E04FF0010ADA4502DDAAEBB5
:1011B0000B0000E00020824600EB0B010898014480
:1011C000A9EB01000A90E00306D4DDE90D232146D6
:1011D0000A9800F056F80644002008E009A911F822
:1011E0000900DDE90D129047761C09F1010008990C
:1011F00081468842F2DBE0030CD5DDE90D23214670
:101200000A9800F03EF8064404E0DDE90D123020B3
:101210009047761CBAF10001AAF1010AF5DC05E05D
:10122000DDE90D1217F8010B9047761CBBF10001A8
:10123000ABF1010BF4DC0A982146DDE90D2300F047
:101240000DF806446D1C287800287FF494AE0FB08A
:101250003046BDE8F08F0000092801002DE9F0417B
:10126000044600251E461746880405D406E0394684
:101270002020B04705F10105641EF8D52846BDE8D9
:10128000F0812DE9F041044600251E469046C80332
:1012900001D5302700E02027880405D506E0414627
:1012A0003846B04705F10105641EF8D52846BDE86B
:1012B000F0810A68531C0B601070704710B504462B
:1012C00000202071401EE062204601F075F908B14F
:1012D000032010BDB4F82E02A0F52A41553901D0E3
:1012E000022010BD94F86600B4F8671040EA0121AE
:1012F0000848B0EB012F08D094F88210B4F883208E
:1013000041EA0221B0EB012F01D1002010BD0120E4
:1013100010BD000000464154426A0068121D490A8F
:101320008078B1FBF0F002CA21B1884204D3401AA0
:10133000121DF8E7002070471168084470474269A1
:10134000891E921E8A4201D800207047826A8078E6
:1013500001FB002070472DE9F0410F00054606D043
:1013600000F0F5FD022809D20120BDE8F081EE6809
:1013700016B16869B04205D8012603E06969814267
:10138000F3D83E4634466869641CA04202D8022461
:10139000022E0AD32146284600F0D9FD38B1411C5F
:1013A000E3D00128E1D0B442EDD10020DDE76FF0B9
:1013B00070422146284601F087F930B957B12246DC
:1013C0003946284601F080F920B101280DD00124CA
:1013D0002046CAE7EC602869411CF9D0401E28610C
:1013E000687940F001006871F2E74FF0FF34EFE7F1
:1013F0002DE9F04789460C6800E0641C21782F290C
:10140000FBD05C29F9D085690B222021284601F008
:10141000CCF8002001460E460823A25D761C202A47
:1014200033D92F2A31D05C2A2FD02E2A0BD09842C4
:1014300038D2802A05D3274F41F003013A4412F8ED
:10144000802C25A707E0082B2CD108200B23890628
:10145000090EE2E77F1C97F800C0BCF1000F02D034
:101460009445F7D11EE0A2F14107192F02D841F0AF
:10147000020107E0A2F16107192F03D8203A41F0D9
:101480000101D2B22A54401CC7E72644C9F80060C3
:10149000202A01D8042200E0002218B12878E5288B
:1014A00003D004E00620BDE8F08705202870082B53
:1014B00001D18806010E01F00300012801D142F09C
:1014C0001002C1F38100012801D142F00802EA7242
:1014D0000020E8E79E340008222A2B2C3A3B3C3DB2
:1014E0003E3F5B5D7C7F000010B504466FF004005A
:1014F000FFF7D2FC0748B4FBF0F0C1B2064801EB9D
:1015000041020170C2EBC1114FF6FF7202EAC10144
:10151000418010BD00127A00080000200B49498864
:1015200048434FF0E021486100228A61086940F099
:10153000010008610869C30701D0C003FAD5086932
:1015400020F0010008618A61704700000800002057
:101550002DE9F0410446C0880F46401C0604360CB5
:101560002CD0206950B331075BD1401C2061E16869
:10157000206829B18278521E12EA161F04D050E06A
:101580000089B0421AD94CE000F0E1FC0546012880
:1015900019D9681C30D020684169A9423BD86FB185
:1015A000E168FFF7D8FE05000BD0012D0BD0681CB9
:1015B00022D0206801F0C3F9F0B906E00420BDE8AC
:1015C000F0810720FBE70220F9E720684FF4007262
:1015D0003030002100F0E9FF29462068FFF7AFFE18
:1015E000216800274FF00108C8620DE080F80480F0
:1015F000206801F0A4F908B10120E0E72068C16A81
:10160000491C7F1CFFB2C16220688178B942EDD8C5
:10161000C16AC91BC162E56029462068FFF78FFED9
:101620002061E68006F00F013022206802EB4111B4
:10163000084460610020C2E770B504460D460420EE
:101640001EE0206800F0B8FFF8B961690A789AB125
:10165000C97AE52A01F03F0108D02E2A06D00F29C9
:1016600004D008290AD00021A94210D00021204628
:10167000FFF76EFF20B108E0042006E00121F3E748
:1016800021690029DDD1002801D00021216170BD30
:1016900070B50446002100F02DF80DE021692068A6
:1016A00000F08AFF50B960690078E52809D040B1A0
:1016B00001212046FFF74CFF0028EFD0042807D077
:1016C00007E02169206800F077FF050003D00FE0F4
:1016D000072005460CE020220021606900F065FF2C
:1016E000D4E905010B2200F057FF216801200871A1
:1016F000284670BD70B50D46C18081680446012939
:101700001ED0206842698A421AD921B90278032A78
:1017100004D1416A11B18078060117E0E1600189C6
:10172000A9420DD9406A17E0206800F010FC01467C
:10173000401C07D0022903D320684069884203D89F
:10174000022070BD012070BDA81B85B2B542EBD24E
:10175000E1602068FFF7F3FD00EB1510206105F054
:101760000F013022206802EB411108446061002023
:1017700070BD10B550B9FFF751F8002807D0FFF73A
:1017800062F9FF20FFF758F9FFF75CF9012010BD5F
:1017900070B5144610B10124204670BD39B101293D
:1017A0001BD0022913D0032914D00424F4E70D4DD3
:1017B00010212846FEF708FEFFF7B5F928B10124ED
:1017C00010212846FEF702FEE6E70024F8E74FF472
:1017D000007000E00820108002E0FEF7E8FF2060C3
:1017E0000024D9E70004004870B514460D460BB13B
:1017F00080B901E0042070BD1A4621462846FFF753
:10180000C5F80028F7D0FFF71EF9FF20FFF714F9FD
:10181000FFF718F9012070BD0020704770B514461D
:101820000D460BB148B901E0042070BD1A462146AF
:101830002846FFF789F90028F7D0012070BD10B5C0
:10184000044600F0C6F9002801D10021216010BD36
:1018500037B5144601A800F0FEFB002801DA0B2082
:101860003EBD0B4A002352F8201001B10B700099C5
:10187000002900D00B7042F8201001D0012C01D0BB
:1018800000203EBD002201A9684600F0EFF93EBDF0
:10189000440000202DE9F7478BB006000ED04FF032
:1018A000000802F01F0727F001020CA96846C6F8DD
:1018B000008000F0DBF9050004D086E009200EB0BE
:1018C000BDE8F08707A8069068460C9900F0EAFA90
:1018D000059C050001D104B9062517F01C0F4AD05C
:1018E00055B1042D03D16846FFF7D2FE0546059C8D
:1018F00047F0080745B168E0E07A10F0110F44D1D5
:10190000780701D5082560E0380744D500F07BFB57
:10191000A073010AE173010C2174000E607484F855
:101920000B8084F81C8084F81D8084F81E8084F865
:101930001F802146009800F0E9FD814600212046E5
:1019400000F09DFF00990120B9F1000F087120D02F
:1019500000984946D0F82CA000F033FF050034D1A0
:101960000099A9F10100C8605146009800F024FEDA
:1019700005000CD029E045BBE07AC10601D504255D
:1019800023E0B90703D5C00701D007251DE03807BC
:1019900001D547F0200700982146C06AC6E9070430
:1019A000B77186F807804746009800F0AFFD3061B8
:1019B000207FD4F81D1040EA0120C6E90270B7610B
:1019C000776200983060C088B080284677E713B50A
:1019D00084B0040006D0002205A9684600F046F94C
:1019E00018B11FE0092006B010BD0098206001A8C2
:1019F000A0612046059900F055FA78B9616931B1C6
:101A0000C87AC00611D5009800F080FDA06000984B
:101A10000021C088A0802046FFF76CFE042804D077
:101A20000028E0D000212160DDE70520FAE72DE95C
:101A3000FC5F0446002018609946154688462046FB
:101A400000F0E8FF002812D1E07900280FD1A0793A
:101A5000C0070BD0D4E90210401A01274FF0020A48
:101A600004F1280B854200D9054686E00720BDE831
:101A7000FC9FA168C80568D120688278521E02EADE
:101A8000512212F0FF0610D129B1626A2AB1204614
:101A9000FFF742FC04E0206902E0616900F057FAB8
:101AA000022813D3411C4BD0606161692068FFF7A5
:101AB00046FC58B130440190680A009026D0216855
:101AC00032188878824205D8009805E084F807A08B
:101AD0000220CCE7801B0090C3B248784146019AAF
:101AE000FFF782FE60BBA07940060CD5A169019882
:101AF000081A0099884206D208EB40204FF4007281
:101B0000594600F049FD009846022CE0A269019870
:101B1000824218D0A07940060AD520680123594690
:101B20004078FFF77BFE58B9A07920F04000A07103
:101B30002068012359464078019AFFF755FE10B1FD
:101B4000E771012093E70198A0612089C0F30800A4
:101B5000C0F50076AE4200D92E4601192831324632
:101B6000404600F019FDA068B0443044A060D9F8A8
:101B700000008119AD1BC9F80010002D7FF479AF6A
:101B8000002074E7FEB50E46044600F043FF00282F
:101B900017D1BEB1C4F818D000212046FFF74CFD84
:101BA0000025042813D000280BD13146204600F030
:101BB0002CFA00212046FFF7CBFC042801D100209D
:101BC0002561FEBD00212046FFF794FDFEBD256185
:101BD000EBE770B5044600F01DFF00280ED1A17997
:101BE0008A060BD548060ED52068012304F128018A
:101BF0004078A269FFF712FE08B1012070BDA079FC
:101C000020F04000A071E169206800F0D5FC0028B8
:101C1000F4D1256AE87A40F02000E872207B28772A
:101C2000A089000A6877E068000CA877E068000ED9
:101C3000E8772846216900F022FE00F0E4F9A87553
:101C4000010AE975010C2976000E68760020A87457
:101C5000E874A07920F02000A071216801200871AB
:101C60002068BDE8704000F012BE00002DE9FF477B
:101C70004FF000090746C0F800901646084600F0ED
:101C8000EAF9051E03DA0B2004B0BDE8F0878248AC
:101C900050F825408CB13C60207820B16078FFF787
:101CA000BBFDC1070BD084F80090E8B26070FFF76D
:101CB00060FDC10708D00320E6E70C20E4E70EB181
:101CC000400704D40020DFE71EB1400701D50A20F9
:101CD000DAE7002529462046FFF7F0FA012822D14D
:101CE00000206F4604EB001101F5F7710A792AB163
:101CF0000A7AD1F8091042EA012100E0002147F8F0
:101D00002010401C0428EDD35FF0000657F8265041
:101D10002DB129462046FFF7D1FA08B909E0022083
:101D2000761C042EF2D3032801D0E8BB01E0012089
:101D3000AAE7B4F83B00B0F5007F5CD1B4F84620C8
:101D40002AB994F85400D4F8551040EA0122A2614F
:101D500094F84010E170012901D002294BD194F888
:101D60003D005143A070F8B1431E184243D1B4F86E
:101D7000413023811E073ED1B4F843602EB994F858
:101D80005060D4F8517046EA0726B4F83EC0BCF162
:101D9000000F30D00CEB010707EB1317BE422AD31C
:101DA000F61BB6FBF0F000E025E020B3012640F67C
:101DB000F678404500D302264FF6F678404500D32A
:101DC0000326801C2F44A762AC446061C4E9075C11
:101DD000032E12D07BB161446162022E18D000F054
:101DE000010100EB400001EB500000BF00F2FF10CA
:101DF000B2EB502F0ED20D2046E7002BFBD194F80A
:101E00005C10D4F85D30800041EA03216162EDE7A7
:101E10004000EBE74FF0FF302061E0608020607110
:101E2000032E30D1B4F8600001282CD1691C204663
:101E300000F0C2FB38BB84F80590B4F82E02A0F580
:101E40002A4155391FD194F83000D4F8311040EAB6
:101E500001201249884216D194F81402D4F81512C0
:101E600040EA01200E4988420DD194F81802D4F8B6
:101E7000191240EA0120206194F81C02D4F81D12C6
:101E800040EA0120E06004492670091F0888401CD0
:101E90000880E08016E700004400002052526141B3
:101EA0007272416173B50446019908782F2801D0F8
:101EB0005C2801D1491C01910025A560019800789A
:101EC000202805D200212046FFF714FC65617CBD67
:101ED00001A92046FFF78CFA0028F8D100212046FE
:101EE000FFF708FCF8B92169206800F065FBD0B95C
:101EF00061690A782AB1CA7A12070ED40A23A26944
:101F000003E004200FE05B1E06D311F8015B12F81A
:101F1000016BAD1BF7D000E02DB100212046FFF78B
:101F200017FB0028DFD0A169C97A28B10428CED1D7
:101F30004907CCD405207CBD4907FCD46169C87A27
:101F4000C006F7D5206800F0E1FAA060C0E72DE9EF
:101F5000F0410D460446022902D36069A84202D826
:101F60000120BDE8F0812078012804D0022826D085
:101F7000032837D12FE0206A05EB550600EB5621E8
:101F8000204600F019FB68BBC6F308002044761C0D
:101F900090F83070206A00EB5621204600F00CFBD0
:101FA00000BBC6F308002044E90790F8300047EA78
:101FB000002001D00009D4E7C0F30B00D1E7206A6C
:101FC00000EB1521204600F0F7FA58B9E8B204EB0F
:101FD0004000008EC5E7206A00EBD511204600F0D6
:101FE000EBFA10B14FF0FF30BBE740F2FF1000EA10
:101FF0008500204490F83010D0F8310041EA0020EC
:1020000020F07040ADE70020704730B5036901F162
:102010000902EBB1406900232E25C45C5B1C202C17
:1020200008D0052C00D1E524092B01D102F8015B71
:1020300002F8014B0B2BF0D3C37A0B72037FD0F85D
:102040001D4043EA04230B60038B8B80C08AC88049
:102050000020107030BD10B502464FF0FF331168FC
:102060001846002907D008783038092802D24C7861
:102070003A2C01D0002010BD891C11600128FADB28
:10208000184610BD2DE9F047054600214FF496365D
:10209000084600F0CFF90021222000F0E7F90122E4
:1020A00011024FF09040FEF793F9DFF838900022CC
:1020B00040214846FEF78CF90B4F00244FEA1528C3
:1020C0004146384600F0AEFBE9B2384600F0AAFBC4
:1020D000641CB442F4D34846BDE8F04701224021D5
:1020E000FEF776B900040048003001402DE9FF5F9B
:1020F0001F46DDF838B00C4682468946F0283DD2AE
:10210000B4F5A07F3AD2002536E00C2F02D0102F74
:102110000AD011E002981A4900EB400001EB800060
:102120002844A0F5C07006E01649029801EB0010A3
:102130002844A0F5007006784FF00008300604D55A
:102140005A462146504600F04EF87006641C060EB2
:10215000A4B2A4EB0900B84205D10AF101004C4633
:102160001FFA80FA06E008F1010000F0FF08B8F15C
:10217000080FE3D36D1CEDB2BD42C6D3BDE8FF9F8F
:102180003A2A0008AE2E00082DE9F84F1F46DDF868
:1021900028A016460D460446F02822D2B5F5A07FA9
:1021A0001FD2F020A0EB5708C7F5A079307800289F
:1021B00017D0A04508D2E819002485B2A94503D25A
:1021C00000252846FFF75EFFCDF800A032783B4699
:1021D00029462046FFF78AFF04EB570084B2761C9D
:1021E000E4E7BDE8F88F10B51446F0280DD2B1F53C
:1021F000A07F0AD200F01EF90021222000F036F95B
:102200002046BDE8104000F05FB910BD10B50122B6
:1022100040218648FEF7DCF8012280218448FEF741
:10222000D7F80021EA2000F043F92021EB2000F04C
:102230003FF90C21EC2000F03BF9C421ED2000F027
:1022400037F93821E82000F033F91021E92000F0B7
:102250002FF90121F12000F02BF91021F22000F0DC
:1022600027F90121402000F023F90021412000F04E
:102270001FF90021422000F01BF91021432000F03B
:1022800017F90E21442000F013F92421452000F015
:102290000FF90421462000F00BF95021472000F0EF
:1022A00007F90221482000F003F91321492000F02A
:1022B000FFF819214A2000F0FBF819214B2000F00B
:1022C000F7F816214C2000F0F3F81B21502000F005
:1022D000EFF83121512000F0EBF82F21522000F0CF
:1022E000E7F83F21532000F0E3F83F21542000F0AD
:1022F000DFF83E21552000F0DBF82F21562000F0BA
:10230000D7F87B21572000F0D3F80921582000F09E
:10231000CFF80621592000F0CBF806215A2000F012
:10232000C7F80C215B2000F0C3F81D215C2000F0F1
:10233000BFF8CC215D2000F0BBF81B21084600F05F
:10234000B7F801211A2000F0B3F82F21242000F063
:10235000AFF85721252000F0ABF88821232000F0AA
:10236000A7F83421182000F0A3F80121192000F06B
:102370009FF80021012000F09BF888211F2000F029
:1023800097F80520FFF7CAF880211F2000F090F889
:102390000520FFF7C3F890211F2000F089F80520E1
:1023A000FFF7BCF8D0211F2000F082F80520FFF7CE
:1023B000B5F80521172000F07BF80021362000F049
:1023C00077F83821282000F073F82820FFF7A6F8C6
:1023D0003F21282000F06CF81821162000F068F842
:1023E0000021022000F064F80021032000F060F8D2
:1023F0000021042000F05CF8EF21052000F058F8DF
:102400000021062000F054F80021072000F050F8C9
:102410000121082000F04CF83F21092000F048F885
:10242000BDE810404FF6FF70FFF72CBE00040048D7
:102430000008004870B50C460546F02814D2B4F5E3
:10244000A07F11D2290A022000F032F8E9B203205D
:1024500000F02EF8210A062000F02AF8E1B2BDE8CB
:102460007040072000F024B870BD000070B505462C
:102470004FF480734FF0904009B1012200E0002238
:102480001946FDF7A5FF084C002240212046FDF724
:102490009FFF2946054800F0C5F92046BDE8704079
:1024A00001224021FDF794BF0004004800300140A4
:1024B00010B50C460021FFF7D9FF2046BDE81040BB
:1024C0000121FFF7D3BF000070B5044601221102BD
:1024D0004FF09040FDF77CFF0A4D00224021284636
:1024E000FDF776FF084E210A304600F09BF9E1B275
:1024F000304600F097F92846BDE87040012240219F
:10250000FDF766BF00040048003001400246488BDA
:102510001278032A02D1898A40EA0140704700F00C
:1025200037FAFEF7E3F8FDF77BFE0000F0B50B305D
:10253000154D20F007010024144A0FE003688B4278
:102540000BD38B4205D95E1A43184768C3E900676D
:1025500000E04368136002C004E0021D1068002818
:10256000ECD12046002802D1286808B10020F0BD37
:10257000064A07481060074A121A22F00702C0E90B
:10258000002401202860D7E74C00002048000020EC
:102590001C090020180B002004E000BF11F8013BCB
:1025A00000F8013B521EF9D27047C9B201E000F8B1
:1025B000011B521EFBD2704770B50446C06A0D461F
:1025C000A8420ED0204600F0BAF938B9607801234D
:1025D0002A4604F13001FFF707F908B1012070BD68
:1025E000E562002070BD00002DE9FC4101214FF49F
:1025F0006020FDF7F3FEE020009002208DF804003B
:1026000000258DF8065001248DF8074003264FF071
:1026100090478DF8056069463846FDF78BFE052228
:1026200011463846FDF7C0FE052206213846FDF763
:10263000BBFE052207213846FDF7B6FE8DF80440A3
:1026400040208DF80650DFF8788000908DF8074024
:102650008DF8056069464046FDF76CFE8DF8044034
:1026600020028DF8065000908DF807408DF8056027
:1026700069463846FDF75EFE8DF8044080208DF8EF
:10268000065000908DF807408DF8056069460D48AA
:10269000FDF750FE8DF8044030208DF80650009074
:1026A0008DF807408DF8056069464046FDF742FE0B
:1026B000012220214046FDF78BFEBDE8FC81000091
:1026C00000040048000800482DE9F04717460D4671
:1026D0000446022902D36069A84202D80220BDE85C
:1026E000F087217807F0FF084FF00109012908D091
:1026F000022938D0032947D05FF0020084F8049003
:10270000EDE7206A05EB550600EB56212046FFF762
:1027100053FF0028F2D1C6F3080020443030E90707
:1027200003D0017868F31F1100E03946017084F886
:102730000490206A761C00EB56212046FFF73CFFF0
:102740000028DBD1C6F3080121443031EA0702D06A
:10275000C7F3071205E00A78C7F3032302F0F0027B
:102760001A430A70CAE7206A00EB15212046FFF7DA
:1027700023FF0028C2D1E9B204EB41013A0A81F8F3
:10278000308081F83120B9E7206A00EBD51120466E
:10279000FFF712FF0028B1D140F2FF1101EA8501D5
:1027A0000A1930324FF07043D2F8011003EA0121C8
:1027B000394311700B0A53700B0C9370090ED170D2
:1027C0009CE72DE9F0410F460646022916D37069B1
:1027D000B84213D900251FE039463046FFF7B7FB52
:1027E00004001CD0012C09D0601C09D000223946FD
:1027F0003046FFF769FF050011D103E002250EE026
:1028000001250CE03069411C05D0401C3061707915
:1028100040F00100707127467069B842DCD8284644
:10282000BDE8F08170B50E460546002403E0641C47
:10283000E4B2C82C0FD802212846FEF7CFF90028B1
:10284000F5D031462846FEF717FA002405E0641C4F
:10285000E4B2C82C01D9002070BD01212846FEF742
:10286000BDF90028F3D02846FEF7FCF90446802184
:102870002846FEF7B3F90028F9D1204670BD8176CD
:102880000A0AC2760A0C0275090E4175704770B5C6
:10289000044600F054F805004FD12078032845D1B4
:1028A0006079012842D1420204F13000002106463D
:1028B000FFF77BFE552084F82E02AA2084F82F0211
:1028C000522084F8300084F83100612084F832000E
:1028D000412184F83310722284F8142284F81522DE
:1028E00084F8161284F81702206984F81802010A85
:1028F00084F81912010C84F81A12000E84F81B02D5
:10290000E06884F81C02010A84F81D12010C84F8A6
:102910001E12000E84F81F02E2690123521CE262BB
:1029200060783146FEF77AFF0020607100226078FF
:102930001146FEF72DFF00B10125284670BD2DE997
:10294000F0410446007900B3E56A04F13001607893
:1029500001232A460F46FEF761FF10B10120BDE8B2
:10296000F08100202071206AA169281A88420CD2C7
:10297000E67808E0A0690123054460782A463946D4
:10298000FEF74CFF761E022EF4D20020E7E700008F
:1029900030B599B005A8FDF739FD0698FEF7A4FDFE
:1029A000FFF722FE6420FEF7B9FD01210C0320464B
:1029B000FDF720FD0020ADF800004FF48271ADF866
:1029C00002104FF4E061ADF804100221ADF80610DA
:1029D0000121ADF808104902ADF80A101821ADF830
:1029E0000C10ADF80E000720094DADF81000694637
:1029F0002846FEF7FAF821462846FEF735F9012168
:102A00002846FEF7E1F8FFF701FC19B030BD0000E1
:102A10000030014010B538B1016829B10A781AB107
:102A2000CA888088824201D0092010BD4878FEF70C
:102A3000F3FEC007F9D0032010BD00000000000025
:102A4000000000000000000000003F400000000007
:102A5000000000003000400030004000000009008D
:102A60000BC03D000BC03D00090018C024407FE0B2
:102A7000224031800000180024C01B000D8032402D
:102A8000018003801C4027401C800740004010004C
:102A900060000000000000000000000000000000D6
:102AA0001F80204040200000402020401F80000068
:102AB0000000090006001F80060009000000040055
:102AC00004003F80040004000000001000600000CB
:102AD00000000000000004000400040004000400E2
:102AE0000000000000400000000000000000002086
:102AF00001C006003800400000001F802040204038
:102B000020401F800000000010403FC00040000037
:102B1000000018C0214022402440184000001080CE
:102B20002040244024401B80000002000D001100C2
:102B30003FC0014000003C802440244024402380CA
:102B400000001F80244024403440038000003000F7
:102B5000200027C03800200000001B8024402440B3
:102B600024401B8000001C0022C0224022401F8005
:102B7000000000000000084000000000000000000D
:102B800000000460000000000000000004000A00D3
:102B900011002080404009000900090009000900D7
:102BA000000000004040208011000A0004001800CE
:102BB000200023402400180000001F8020402740F0
:102BC00029401F400000004007C039000F0001C02D
:102BD000004020403FC0244024401B8000001F8054
:102BE0002040204020403080000020403FC0204056
:102BF00020401F80000020403FC024402E4030C0B5
:102C0000000020403FC024402E00300000000F0094
:102C10001080204022403380020020403FC004004A
:102C200004003FC02040204020403FC020402040C2
:102C300000000060202020203FC020002000204015
:102C40003FC024400B0030C0204020403FC0204007
:102C50000040004000C03FC03C0003C03C003FC0FB
:102C6000000020403FC00C4023003FC020001F80D8
:102C70002040204020401F80000020403FC02440D2
:102C80002400180000001F802140214020E01FA0E8
:102C9000000020403FC02440260019C0004018C05A
:102CA00024402440224031800000300020403FC0BA
:102CB00020403000000020003F80004000403F8066
:102CC000200020003E0001C007003800200038002E
:102CD00007C03C0007C038000000204039C0060093
:102CE00039C0204000002000384007C03840200094
:102CF0000000304021C02640384020C000000000C5
:102D000000007FE0402040200000000070000C0028
:102D10000380004000000000402040207FE00000D1
:102D20000000000020004000200000000000001013
:102D30000010001000100010001000000000400003
:102D4000000000000000000002800540054003C0B4
:102D5000004020003FC00440044003800000000009
:102D6000038004400440064000000000038004404B
:102D700024403FC000400000038005400540034060
:102D80000000000004401FC0244024402000000038
:102D900002E0055005500650042020403FC004408A
:102DA000040003C000400000044027C000400000B1
:102DB000000000100010041027E000000000204078
:102DC0003FC00140070004C00440204020403FC0F5
:102DD00000400040000007C0040007C0040003C01A
:102DE0000000044007C00440040003C0004000008D
:102DF00003800440044003800000041007F00450E6
:102E0000044003800000000003800440045007F0E9
:102E10000010044007C0024004000400000000004D
:102E200006400540054004C00000000004001F806B
:102E3000044000400000040007800040044007C038
:102E400000400400070004C00180060004000600E2
:102E500001C0070001C006000000044006C00100D8
:102E600006C0044000000410071004E001800600C2
:102E700004000000044005C00640044000000000BB
:102E8000000004007BE04020000000000000000083
:102E9000FFF000000000000040207BE00400000084
:102EA00000004000800040002000200040000000A2
:102EB0000000000000000000000000000000000012
:102EC000000000001FCC000C00000000000000000B
:102ED00008003000600008003000600000000220A0
:102EE00003FC1E20022003FC1E2002200000000024
:102EF0000E1811043FFF10840C78000000000F0032
:102F000010840F3800C0077818840078000000781B
:102F10000F8410C411240E9800E4008400080800F7
:102F200068007000000000000000000000000000C9
:102F30000000000007E01818200440020000000014
:102F400040022004181807E00000000000000240C2
:102F5000024001800FF0018002400240000000802A
:102F6000008000800FF800800080008000000001D9
:102F7000000D000E00000000000000000000000036
:102F800000800080008000800080008000800000C1
:102F9000000C000C00000000000000000000000019
:102FA00000060018006001800600180020000000E4
:102FB00007F0080810041004080807F000000000DB
:102FC000080408041FFC00040004000000000000C6
:102FD0000E0C10141024104411840E0C000000007C
:102FE0000C1810041104110412880C700000000069
:102FF00000E00320042408241FFC0024000000003B
:103000001F98108411041104108810700000000033
:1030100007F00888110411041888007000000000EF
:103020001C00100010FC13001C0010000000000029
:103030000E3811441084108411440E380000000032
:103040000700088C10441044088807F000000000B6
:1030500000000000030C030C000000000000000052
:103060000000000101060000000000000000000058
:103070000080014002200410080810040000022013
:103080000220022002200220022002200000000074
:103090001004080804100220014000800000000015
:1030A0000E001200100C106C10800F00000003E0E6
:1030B0000C1813E4142417C4082807D000000004D7
:1030C000003C03C41C40074000E4001C0004100442
:1030D0001FFC1104110411040E880070000003E0AD
:1030E0000C1810041004100410081C100000100428
:1030F0001FFC100410041004080807F0000010045E
:103100001FFC1104110417C4100408180000100457
:103110001FFC1104110017C010000800000003E09C
:103120000C181004100410441C7800400000100417
:103130001FFC10840080008010841FFC100400001D
:10314000100410041FFC1004100400000000000311
:103150000001100110011FFE1000100000001004FB
:103160001FFC110403801464181C100400001004D8
:103170001FFC1004000400040004000C00001004F4
:103180001FFC1F0000FC1F001FFC100400001004A7
:103190001FFC0C04030000E010181FFC100007F0D7
:1031A0000808100410041004080807F000001004B8
:1031B0001FFC10841080108010800F00000007F0AA
:1031C000081810241024101C080A07F2000010042C
:1031D0001FFC1104110011C011300E0C000400007E
:1031E0000E1C11041084108410441C3800001800B8
:1031F000100010041FFC1004100018000000100044
:103200001FF810040004000410041FF81000100040
:103210001E0011E0001C007013801C0010001FC075
:10322000103C00E01F0000E0103C1FC00000100434
:10323000180C163401C001C01634180C100410000C
:103240001C00130400FC13041C0010000000080400
:10325000101C1064108413041C04101800000000DB
:10326000000000007FFE400240024002000000001B
:1032700030000C0003800060001C00030000000010
:103280004002400240027FFE0000000000000000FB
:10329000000020004000400040002000000000012D
:1032A0000001000100010001000100010001000017
:1032B000400040002000000000000000000000006E
:1032C0000098012401440144014400FC0004100062
:1032D0001FFC008801040104008800700000000049
:1032E000007000880104010401040088000000004F
:1032F000007000880104010411081FFC0004000094
:1033000000F8014401440144014400C800000000E9
:10331000010401040FFC1104110411001800000045
:1033200000D601290129012901C901060000100464
:103330001FFC008401000100010400FC00040000E7
:103340000104190419FC000400040000000000003E
:10335000000300010101190119FE00000000100422
:103360001FFC0024004001B4010C01040000000017
:10337000100410041FFC00040004000000000104FD
:1033800001FC0104010001FC0104010000FC010436
:1033900001FC008401000100010400FC00040000A5
:1033A00000F8010401040104010400F80000010117
:1033B00001FF008501040104008800700000000086
:1033C0000070008801040104010501FF00010104EF
:1033D000010401FC008401040100018000000000E0
:1033E00000CC0124012401240124019800000000E4
:1033F0000100010007F801040104000000000100C1
:1034000001F8000400040004010801FC00040100AC
:1034100001800170000C001001600180010001F0CA
:10342000010C003001C00030010C01F0010000006F
:103430000104018C00740170018C01040000010181
:1034400001810171000E001801600180010000007F
:103450000184010C013401440184010C00000000CE
:1034600000000000000001003EFC4002400200009D
:10347000000000000000FFFF00000000000000004E
:10348000400240023EFC010000000000000000007D
:10349000600080008000400040002000200080810B
:1034A00082838485868788898A8B8C8D8E8F909184
:1034B0009293949596979899AD9B8C9DAE9FA021E1
:1034C000A2A3A4A5A6A7A8A9AAABACADAEAFB0B164
:1034D000B2B3B4B5B6B7B8B9BABBBCBDBEBFC0C154
:1034E000C2C3C4C5C6C7C8C9CACBCCCDCECFD0D144
:1034F000D2D3D4D5D6D7D8D9DADBDCDDDEDFC0C174
:10350000C2C3C4C5C6C7C8C9CACBCCCDCECFD0D123
:10351000D2D3D4D5D6F7D8D9DADBDCDDDE9F0000F4
:10352000403500080000002050000000480F00084F
:103530009035000850000020C80E0000580F000809
:10354000000000000000000000000000000000007B
:103550000000010203040102030406070809010038
:1035600002000400060008000A000C001000200001
:10357000400080000001000000000000000000008A
:10358000000000000000000000000000000000003B
:040000050800018965
:00000001FF
